{
  "contractName": "SpaceY",
  "abi": [
    {
      "inputs": [
        {
          "internalType": "uint32",
          "name": "size",
          "type": "uint32"
        },
        {
          "internalType": "uint256",
          "name": "startFee",
          "type": "uint256"
        }
      ],
      "payable": false,
      "stateMutability": "nonpayable",
      "type": "constructor"
    },
    {
      "anonymous": false,
      "inputs": [
        {
          "indexed": true,
          "internalType": "address",
          "name": "player",
          "type": "address"
        }
      ],
      "name": "InitialPlanetBought",
      "type": "event"
    },
    {
      "anonymous": false,
      "inputs": [
        {
          "indexed": false,
          "internalType": "uint32",
          "name": "planetId",
          "type": "uint32"
        },
        {
          "indexed": true,
          "internalType": "address",
          "name": "player",
          "type": "address"
        },
        {
          "indexed": false,
          "internalType": "uint64",
          "name": "units",
          "type": "uint64"
        }
      ],
      "name": "PlanetConquered",
      "type": "event"
    },
    {
      "anonymous": false,
      "inputs": [
        {
          "indexed": true,
          "internalType": "uint32",
          "name": "fromPlanetId",
          "type": "uint32"
        },
        {
          "indexed": true,
          "internalType": "uint32",
          "name": "toPlanetId",
          "type": "uint32"
        },
        {
          "indexed": true,
          "internalType": "address",
          "name": "player",
          "type": "address"
        },
        {
          "indexed": false,
          "internalType": "uint64",
          "name": "units",
          "type": "uint64"
        }
      ],
      "name": "UnitsMoved",
      "type": "event"
    },
    {
      "constant": true,
      "inputs": [],
      "name": "owner",
      "outputs": [
        {
          "internalType": "address payable",
          "name": "",
          "type": "address"
        }
      ],
      "payable": false,
      "stateMutability": "view",
      "type": "function"
    },
    {
      "constant": true,
      "inputs": [
        {
          "internalType": "uint32",
          "name": "",
          "type": "uint32"
        }
      ],
      "name": "planets",
      "outputs": [
        {
          "internalType": "address",
          "name": "owner",
          "type": "address"
        },
        {
          "internalType": "uint256",
          "name": "conquerBlockNumber",
          "type": "uint256"
        },
        {
          "internalType": "int128",
          "name": "units",
          "type": "int128"
        }
      ],
      "payable": false,
      "stateMutability": "view",
      "type": "function"
    },
    {
      "constant": true,
      "inputs": [
        {
          "internalType": "address",
          "name": "",
          "type": "address"
        }
      ],
      "name": "playerStartBlocks",
      "outputs": [
        {
          "internalType": "uint256",
          "name": "",
          "type": "uint256"
        }
      ],
      "payable": false,
      "stateMutability": "view",
      "type": "function"
    },
    {
      "constant": true,
      "inputs": [],
      "name": "startCosts",
      "outputs": [
        {
          "internalType": "uint256",
          "name": "",
          "type": "uint256"
        }
      ],
      "payable": false,
      "stateMutability": "view",
      "type": "function"
    },
    {
      "constant": true,
      "inputs": [],
      "name": "universeSize",
      "outputs": [
        {
          "internalType": "uint32",
          "name": "",
          "type": "uint32"
        }
      ],
      "payable": false,
      "stateMutability": "view",
      "type": "function"
    },
    {
      "constant": true,
      "inputs": [
        {
          "internalType": "uint32",
          "name": "planetId",
          "type": "uint32"
        }
      ],
      "name": "getPlanetStats",
      "outputs": [
        {
          "internalType": "uint64",
          "name": "unitsCost",
          "type": "uint64"
        },
        {
          "internalType": "uint64",
          "name": "unitsCreationRate",
          "type": "uint64"
        }
      ],
      "payable": false,
      "stateMutability": "view",
      "type": "function"
    },
    {
      "constant": true,
      "inputs": [
        {
          "internalType": "uint32",
          "name": "planetId",
          "type": "uint32"
        }
      ],
      "name": "getUnitsOnPlanet",
      "outputs": [
        {
          "internalType": "uint64",
          "name": "units",
          "type": "uint64"
        }
      ],
      "payable": false,
      "stateMutability": "view",
      "type": "function"
    },
    {
      "constant": false,
      "inputs": [],
      "name": "buyInitialPlanet",
      "outputs": [],
      "payable": true,
      "stateMutability": "payable",
      "type": "function"
    },
    {
      "constant": false,
      "inputs": [
        {
          "internalType": "uint32",
          "name": "fromPlanetId",
          "type": "uint32"
        },
        {
          "internalType": "uint32",
          "name": "toPlanetId",
          "type": "uint32"
        },
        {
          "internalType": "uint64",
          "name": "sendUnitAmount",
          "type": "uint64"
        }
      ],
      "name": "conquerPlanet",
      "outputs": [],
      "payable": false,
      "stateMutability": "nonpayable",
      "type": "function"
    },
    {
      "constant": false,
      "inputs": [
        {
          "internalType": "uint32",
          "name": "fromPlanetId",
          "type": "uint32"
        },
        {
          "internalType": "uint32",
          "name": "toPlanetId",
          "type": "uint32"
        },
        {
          "internalType": "uint64",
          "name": "sendUnitAmount",
          "type": "uint64"
        }
      ],
      "name": "moveUnits",
      "outputs": [],
      "payable": false,
      "stateMutability": "nonpayable",
      "type": "function"
    }
  ],
  "bytecode": "0x608060405234801561001057600080fd5b506040516110c83803806110c88339818101604052604081101561003357600080fd5b81019080805190602001909291908051906020019092919050505081600260006101000a81548163ffffffff021916908363ffffffff16021790555080600181905550336000806101000a81548173ffffffffffffffffffffffffffffffffffffffff021916908373ffffffffffffffffffffffffffffffffffffffff1602179055505050611001806100c76000396000f3fe6080604052600436106100915760003560e01c80636e2f1b95116100595780636e2f1b95146102785780637eea9ab8146102825780638da5cb5b14610317578063cb545de61461036e578063ddbf8a11146103d357610091565b8063226a9ffa146100965780632d72de0f146100fb5780632ed9a1e01461012657806348758b751461018b5780635bb406741461020f575b600080fd5b3480156100a257600080fd5b506100e5600480360360208110156100b957600080fd5b81019080803573ffffffffffffffffffffffffffffffffffffffff16906020019092919050505061040a565b6040518082815260200191505060405180910390f35b34801561010757600080fd5b50610110610422565b6040518082815260200191505060405180910390f35b34801561013257600080fd5b506101896004803603606081101561014957600080fd5b81019080803563ffffffff169060200190929190803563ffffffff169060200190929190803567ffffffffffffffff169060200190929190505050610428565b005b34801561019757600080fd5b506101ca600480360360208110156101ae57600080fd5b81019080803563ffffffff16906020019092919050505061069a565b604051808367ffffffffffffffff1667ffffffffffffffff1681526020018267ffffffffffffffff1667ffffffffffffffff1681526020019250505060405180910390f35b34801561021b57600080fd5b5061024e6004803603602081101561023257600080fd5b81019080803563ffffffff1690602001909291905050506106e5565b604051808267ffffffffffffffff1667ffffffffffffffff16815260200191505060405180910390f35b61028061081b565b005b34801561028e57600080fd5b506102c1600480360360208110156102a557600080fd5b81019080803563ffffffff169060200190929190505050610997565b604051808473ffffffffffffffffffffffffffffffffffffffff1673ffffffffffffffffffffffffffffffffffffffff16815260200183815260200182600f0b600f0b8152602001935050505060405180910390f35b34801561032357600080fd5b5061032c6109ee565b604051808273ffffffffffffffffffffffffffffffffffffffff1673ffffffffffffffffffffffffffffffffffffffff16815260200191505060405180910390f35b34801561037a57600080fd5b506103d16004803603606081101561039157600080fd5b81019080803563ffffffff169060200190929190803563ffffffff169060200190929190803567ffffffffffffffff169060200190929190505050610a13565b005b3480156103df57600080fd5b506103e8610d7e565b604051808263ffffffff1663ffffffff16815260200191505060405180910390f35b60046020528060005260406000206000915090505481565b60015481565b81333373ffffffffffffffffffffffffffffffffffffffff16600360008463ffffffff1663ffffffff16815260200190815260200160002060000160009054906101000a900473ffffffffffffffffffffffffffffffffffffffff1673ffffffffffffffffffffffffffffffffffffffff161461050d576040517f08c379a00000000000000000000000000000000000000000000000000000000081526004018080602001828103825260118152602001807f4e6f74206f776e696e6720706c616e657400000000000000000000000000000081525060200191505060405180910390fd5b84333373ffffffffffffffffffffffffffffffffffffffff16600360008463ffffffff1663ffffffff16815260200190815260200160002060000160009054906101000a900473ffffffffffffffffffffffffffffffffffffffff1673ffffffffffffffffffffffffffffffffffffffff16146105f2576040517f08c379a00000000000000000000000000000000000000000000000000000000081526004018080602001828103825260118152602001807f4e6f74206f776e696e6720706c616e657400000000000000000000000000000081525060200191505060405180910390fd5b8467ffffffffffffffff16610606886106e5565b67ffffffffffffffff161015610684576040517f08c379a000000000000000000000000000000000000000000000000000000000815260040180806020018281038252601e8152602001807f4e6f7420656e6f75676820756e697473206f6e2066726f6d506c616e6574000081525060200191505060405180910390fd5b6106918787876000610d94565b50505050505050565b6000806000600284600260009054906101000a900463ffffffff160363ffffffff160a63ffffffff1690508060648267ffffffffffffffff16816106da57fe5b049250925050915091565b60006106ef610ef0565b600360008463ffffffff1663ffffffff1681526020019081526020016000206040518060600160405290816000820160009054906101000a900473ffffffffffffffffffffffffffffffffffffffff1673ffffffffffffffffffffffffffffffffffffffff1673ffffffffffffffffffffffffffffffffffffffff168152602001600182015481526020016002820160009054906101000a9004600f0b600f0b600f0b815250509050600073ffffffffffffffffffffffffffffffffffffffff16816000015173ffffffffffffffffffffffffffffffffffffffff1614156107db576000915050610816565b60008160200151430390506000806107f28661069a565b9150915060008167ffffffffffffffff168402856040015101905080955050505050505b919050565b600154341015610876576040517f08c379a0000000000000000000000000000000000000000000000000000000008152600401808060200182810382526047815260200180610f2b6047913960600191505060405180910390fd5b6000600460003373ffffffffffffffffffffffffffffffffffffffff1673ffffffffffffffffffffffffffffffffffffffff168152602001908152602001600020541461090e576040517f08c379a000000000000000000000000000000000000000000000000000000000815260040180806020018281038252602c815260200180610fa1602c913960400191505060405180910390fd5b43600460003373ffffffffffffffffffffffffffffffffffffffff1673ffffffffffffffffffffffffffffffffffffffff168152602001908152602001600020819055503373ffffffffffffffffffffffffffffffffffffffff167f897cf4333c71c4fe8c42014ee1c38e854558b338aa872de7b8dd9881570f668460405160405180910390a2565b60036020528060005260406000206000915090508060000160009054906101000a900473ffffffffffffffffffffffffffffffffffffffff16908060010154908060020160009054906101000a9004600f0b905083565b6000809054906101000a900473ffffffffffffffffffffffffffffffffffffffff1681565b82333373ffffffffffffffffffffffffffffffffffffffff16600360008463ffffffff1663ffffffff16815260200190815260200160002060000160009054906101000a900473ffffffffffffffffffffffffffffffffffffffff1673ffffffffffffffffffffffffffffffffffffffff1614610af8576040517f08c379a00000000000000000000000000000000000000000000000000000000081526004018080602001828103825260118152602001807f4e6f74206f776e696e6720706c616e657400000000000000000000000000000081525060200191505060405180910390fd5b600080610b048661069a565b915091508467ffffffffffffffff16610b1c886106e5565b67ffffffffffffffff161015610b9a576040517f08c379a000000000000000000000000000000000000000000000000000000000815260040180806020018281038252601e8152602001807f4e6f7420656e6f75676820756e697473206f6e2066726f6d506c616e6574000081525060200191505060405180910390fd5b8467ffffffffffffffff168267ffffffffffffffff161115610c07576040517f08c379a000000000000000000000000000000000000000000000000000000000815260040180806020018281038252602f815260200180610f72602f913960400191505060405180910390fd5b60405180606001604052803373ffffffffffffffffffffffffffffffffffffffff1681526020014381526020016000600f0b815250600360008863ffffffff1663ffffffff16815260200190815260200160002060008201518160000160006101000a81548173ffffffffffffffffffffffffffffffffffffffff021916908373ffffffffffffffffffffffffffffffffffffffff1602179055506020820151816001015560408201518160020160006101000a8154816fffffffffffffffffffffffffffffffff0219169083600f0b6fffffffffffffffffffffffffffffffff1602179055509050503373ffffffffffffffffffffffffffffffffffffffff167f4f87672e29557a95006fde6860e8ed4bbada9fe9ff630f4696373472247964c387848803604051808363ffffffff1663ffffffff1681526020018267ffffffffffffffff1667ffffffffffffffff1681526020019250505060405180910390a2610d7587878785610d94565b50505050505050565b600260009054906101000a900463ffffffff1681565b8167ffffffffffffffff16600360008663ffffffff1663ffffffff16815260200190815260200160002060020160008282829054906101000a9004600f0b0392506101000a8154816fffffffffffffffffffffffffffffffff0219169083600f0b6fffffffffffffffffffffffffffffffff160217905550600081830390508067ffffffffffffffff16600360008663ffffffff1663ffffffff16815260200190815260200160002060020160006101000a8154816fffffffffffffffffffffffffffffffff0219169083600f0b6fffffffffffffffffffffffffffffffff1602179055503373ffffffffffffffffffffffffffffffffffffffff168463ffffffff168663ffffffff167ff8c35a079321431cc80e6caedad9fd67e7b42bdd99ae34e9b4c74b9eb524a0c186604051808267ffffffffffffffff1667ffffffffffffffff16815260200191505060405180910390a45050505050565b6040518060600160405280600073ffffffffffffffffffffffffffffffffffffffff168152602001600081526020016000600f0b8152509056fe546865207472616e73616374696f6e20646f6573206e6f7420636f6e7461696e20656e6f756768742076616c756520746f20636f7665722074686520737461727420636f7374735468652073656e64656420756e697420616d6f756e7420697320736d616c6c6572207468616e2074686520636f7374546865206164647265737320616c726561647920626f7567687420616e20696e697469616c20706c616e6574a265627a7a7231582057fbe2937efd836e1d9cf6215c1af2ca485569e26f80dd5451401a18a0f5774464736f6c63430005100032",
  "source": "pragma solidity >=0.4.22 <0.9.0;\n\ncontract SpaceY {\n    struct Planet {\n        address owner;\n        uint256 conquerBlockNumber;\n        int128 units;\n    }\n\n    address payable public owner;\n\n    uint256 public startCosts;\n\n    uint32 public universeSize;\n\n    mapping(uint32 => Planet) public planets;\n    mapping(address => uint256) public playerStartBlocks;\n\n    constructor(uint32 size, uint256 startFee) public {\n        universeSize = size;\n        startCosts = startFee;\n        owner = msg.sender;\n    }\n\n    modifier ownsPlanet(uint32 planetId, address person) {\n        require(planets[planetId].owner == msg.sender, \"Not owning planet\");\n        _;\n    }\n\n    event InitialPlanetBought(address indexed player);\n    event PlanetConquered(\n        uint32 planetId,\n        address indexed player,\n        uint64 units\n    );\n    event UnitsMoved(\n        uint32 indexed fromPlanetId,\n        uint32 indexed toPlanetId,\n        address indexed player,\n        uint64 units\n    );\n\n    function getPlanetStats(uint32 planetId)\n        public\n        view\n        returns (uint64 unitsCost, uint64 unitsCreationRate)\n    {\n        uint64 magnitute = (universeSize - planetId)**2;\n\n        return (magnitute, magnitute / 100);\n    }\n\n    function getUnitsOnPlanet(uint32 planetId)\n        public\n        view\n        returns (uint64 units)\n    {\n        Planet memory planet = planets[planetId];\n        if (planet.owner == address(0x0)) {\n            return 0;\n        }\n        uint256 blockDelta = block.number - planet.conquerBlockNumber;\n        (uint64 _, uint64 unitsCreationRate) = getPlanetStats(planetId);\n        uint64 amount =\n            uint64(planet.units + int128(blockDelta * unitsCreationRate));\n        return amount;\n    }\n\n    function buyInitialPlanet() external payable {\n        require(\n            msg.value >= startCosts,\n            \"The transaction does not contain enought value to cover the start costs\"\n        );\n        require(\n            playerStartBlocks[msg.sender] == 0,\n            \"The address already bought an initial planet\"\n        );\n        playerStartBlocks[msg.sender] = block.number;\n        emit InitialPlanetBought(msg.sender);\n    }\n\n    function conquerPlanet(\n        uint32 fromPlanetId,\n        uint32 toPlanetId,\n        uint64 sendUnitAmount\n    )\n        external\n        ownsPlanet(fromPlanetId, msg.sender)\n    //ownsPlanet(toPlanetId, address(0x0))\n    {\n        (uint64 unitsCost, uint64 _) = getPlanetStats(toPlanetId);\n        require(\n            getUnitsOnPlanet(fromPlanetId) >= sendUnitAmount,\n            \"Not enough units on fromPlanet\"\n        );\n        require(\n            unitsCost <= sendUnitAmount,\n            \"The sended unit amount is smaller than the cost\"\n        );\n\n        planets[toPlanetId] = Planet(msg.sender, block.number, 0);\n\n        emit PlanetConquered(\n            toPlanetId,\n            msg.sender,\n            sendUnitAmount - unitsCost\n        );\n        forceMoveUnits(fromPlanetId, toPlanetId, sendUnitAmount, unitsCost);\n    }\n\n    function moveUnits(\n        uint32 fromPlanetId,\n        uint32 toPlanetId,\n        uint64 sendUnitAmount\n    )\n        external\n        ownsPlanet(toPlanetId, msg.sender)\n        ownsPlanet(fromPlanetId, msg.sender)\n    {\n        require(\n            getUnitsOnPlanet(fromPlanetId) >= sendUnitAmount,\n            \"Not enough units on fromPlanet\"\n        );\n        forceMoveUnits(fromPlanetId, toPlanetId, sendUnitAmount, 0);\n    }\n\n    function forceMoveUnits(\n        uint32 fromPlanetId,\n        uint32 toPlanetId,\n        uint64 sendUnitAmount,\n        uint64 unitsCost\n    ) private {\n        planets[fromPlanetId].units -= sendUnitAmount;\n        uint64 remainingUnits = sendUnitAmount - unitsCost;\n        planets[toPlanetId].units = remainingUnits;\n        emit UnitsMoved(fromPlanetId, toPlanetId, msg.sender, sendUnitAmount);\n    }\n}\n",
  "sourcePath": "/home/manuel/projects/spacey/contracts/SpaceY.sol",
  "compiler": {
    "name": "solc",
    "version": "0.5.16+commit.9c3226ce.Emscripten.clang"
  },
  "schemaVersion": "3.3.3",
  "updatedAt": "2021-02-05T10:50:44.325Z",
  "devdoc": {
    "methods": {}
  },
  "userdoc": {
    "methods": {}
  }
}