{
  "contractName": "SpaceY",
  "abi": [
    {
      "inputs": [
        {
          "internalType": "uint32",
          "name": "size",
          "type": "uint32"
        },
        {
          "internalType": "uint256",
          "name": "startFee",
          "type": "uint256"
        }
      ],
      "payable": false,
      "stateMutability": "nonpayable",
      "type": "constructor"
    },
    {
      "anonymous": false,
      "inputs": [
        {
          "indexed": true,
          "internalType": "address",
          "name": "player",
          "type": "address"
        }
      ],
      "name": "InitialPlanetBought",
      "type": "event"
    },
    {
      "anonymous": false,
      "inputs": [
        {
          "indexed": false,
          "internalType": "uint32",
          "name": "planetId",
          "type": "uint32"
        },
        {
          "indexed": true,
          "internalType": "address",
          "name": "player",
          "type": "address"
        },
        {
          "indexed": false,
          "internalType": "uint64",
          "name": "units",
          "type": "uint64"
        }
      ],
      "name": "PlanetConquered",
      "type": "event"
    },
    {
      "anonymous": false,
      "inputs": [
        {
          "indexed": true,
          "internalType": "uint32",
          "name": "fromPlanetId",
          "type": "uint32"
        },
        {
          "indexed": true,
          "internalType": "uint32",
          "name": "toPlanetId",
          "type": "uint32"
        },
        {
          "indexed": true,
          "internalType": "address",
          "name": "player",
          "type": "address"
        },
        {
          "indexed": false,
          "internalType": "uint64",
          "name": "units",
          "type": "uint64"
        }
      ],
      "name": "UnitsMoved",
      "type": "event"
    },
    {
      "constant": true,
      "inputs": [],
      "name": "owner",
      "outputs": [
        {
          "internalType": "address payable",
          "name": "",
          "type": "address"
        }
      ],
      "payable": false,
      "stateMutability": "view",
      "type": "function"
    },
    {
      "constant": true,
      "inputs": [
        {
          "internalType": "uint32",
          "name": "",
          "type": "uint32"
        }
      ],
      "name": "planets",
      "outputs": [
        {
          "internalType": "address",
          "name": "owner",
          "type": "address"
        },
        {
          "internalType": "uint256",
          "name": "conquerBlockNumber",
          "type": "uint256"
        },
        {
          "internalType": "int128",
          "name": "units",
          "type": "int128"
        }
      ],
      "payable": false,
      "stateMutability": "view",
      "type": "function"
    },
    {
      "constant": true,
      "inputs": [
        {
          "internalType": "address",
          "name": "",
          "type": "address"
        }
      ],
      "name": "playerStartBlocks",
      "outputs": [
        {
          "internalType": "uint256",
          "name": "",
          "type": "uint256"
        }
      ],
      "payable": false,
      "stateMutability": "view",
      "type": "function"
    },
    {
      "constant": true,
      "inputs": [],
      "name": "startCost",
      "outputs": [
        {
          "internalType": "uint256",
          "name": "",
          "type": "uint256"
        }
      ],
      "payable": false,
      "stateMutability": "view",
      "type": "function"
    },
    {
      "constant": true,
      "inputs": [],
      "name": "universeSize",
      "outputs": [
        {
          "internalType": "uint32",
          "name": "",
          "type": "uint32"
        }
      ],
      "payable": false,
      "stateMutability": "view",
      "type": "function"
    },
    {
      "constant": true,
      "inputs": [
        {
          "internalType": "uint32",
          "name": "planetId",
          "type": "uint32"
        }
      ],
      "name": "getPlanetStats",
      "outputs": [
        {
          "internalType": "uint64",
          "name": "unitsCost",
          "type": "uint64"
        },
        {
          "internalType": "uint64",
          "name": "unitsCreationRate",
          "type": "uint64"
        }
      ],
      "payable": false,
      "stateMutability": "view",
      "type": "function"
    },
    {
      "constant": true,
      "inputs": [
        {
          "internalType": "uint32",
          "name": "planetId",
          "type": "uint32"
        }
      ],
      "name": "getUnitsOnPlanet",
      "outputs": [
        {
          "internalType": "uint64",
          "name": "units",
          "type": "uint64"
        }
      ],
      "payable": false,
      "stateMutability": "view",
      "type": "function"
    },
    {
      "constant": false,
      "inputs": [],
      "name": "buyInitialPlanet",
      "outputs": [],
      "payable": true,
      "stateMutability": "payable",
      "type": "function"
    },
    {
      "constant": false,
      "inputs": [
        {
          "internalType": "uint32",
          "name": "fromPlanetId",
          "type": "uint32"
        },
        {
          "internalType": "uint32",
          "name": "toPlanetId",
          "type": "uint32"
        },
        {
          "internalType": "uint64",
          "name": "sendUnitAmount",
          "type": "uint64"
        }
      ],
      "name": "conquerPlanet",
      "outputs": [],
      "payable": false,
      "stateMutability": "nonpayable",
      "type": "function"
    },
    {
      "constant": false,
      "inputs": [
        {
          "internalType": "uint32",
          "name": "fromPlanetId",
          "type": "uint32"
        },
        {
          "internalType": "uint32",
          "name": "toPlanetId",
          "type": "uint32"
        },
        {
          "internalType": "uint64",
          "name": "sendUnitAmount",
          "type": "uint64"
        }
      ],
      "name": "moveUnits",
      "outputs": [],
      "payable": false,
      "stateMutability": "nonpayable",
      "type": "function"
    }
  ],
  "bytecode": "0x608060405234801561001057600080fd5b506040516114d93803806114d98339818101604052604081101561003357600080fd5b81019080805190602001909291908051906020019092919050505081600260006101000a81548163ffffffff021916908363ffffffff16021790555080600181905550336000806101000a81548173ffffffffffffffffffffffffffffffffffffffff021916908373ffffffffffffffffffffffffffffffffffffffff1602179055505050611412806100c76000396000f3fe6080604052600436106100915760003560e01c80637eea9ab8116100595780637eea9ab8146102575780638da5cb5b146102ec578063b749aaf314610343578063cb545de61461036e578063ddbf8a11146103d357610091565b8063226a9ffa146100965780632ed9a1e0146100fb57806348758b75146101605780635bb40674146101e45780636e2f1b951461024d575b600080fd5b3480156100a257600080fd5b506100e5600480360360208110156100b957600080fd5b81019080803573ffffffffffffffffffffffffffffffffffffffff16906020019092919050505061040a565b6040518082815260200191505060405180910390f35b34801561010757600080fd5b5061015e6004803603606081101561011e57600080fd5b81019080803563ffffffff169060200190929190803563ffffffff169060200190929190803567ffffffffffffffff169060200190929190505050610422565b005b34801561016c57600080fd5b5061019f6004803603602081101561018357600080fd5b81019080803563ffffffff169060200190929190505050610784565b604051808367ffffffffffffffff1667ffffffffffffffff1681526020018267ffffffffffffffff1667ffffffffffffffff1681526020019250505060405180910390f35b3480156101f057600080fd5b506102236004803603602081101561020757600080fd5b81019080803563ffffffff1690602001909291905050506108cf565b604051808267ffffffffffffffff1667ffffffffffffffff16815260200191505060405180910390f35b610255610a50565b005b34801561026357600080fd5b506102966004803603602081101561027a57600080fd5b81019080803563ffffffff169060200190929190505050610bcc565b604051808473ffffffffffffffffffffffffffffffffffffffff1673ffffffffffffffffffffffffffffffffffffffff16815260200183815260200182600f0b600f0b8152602001935050505060405180910390f35b3480156102f857600080fd5b50610301610c23565b604051808273ffffffffffffffffffffffffffffffffffffffff1673ffffffffffffffffffffffffffffffffffffffff16815260200191505060405180910390f35b34801561034f57600080fd5b50610358610c48565b6040518082815260200191505060405180910390f35b34801561037a57600080fd5b506103d16004803603606081101561039157600080fd5b81019080803563ffffffff169060200190929190803563ffffffff169060200190929190803567ffffffffffffffff169060200190929190505050610c4e565b005b3480156103df57600080fd5b506103e8611191565b604051808263ffffffff1663ffffffff16815260200191505060405180910390f35b60046020528060005260406000206000915090505481565b8133600260009054906101000a900463ffffffff1663ffffffff168263ffffffff1614610531578073ffffffffffffffffffffffffffffffffffffffff16600360008463ffffffff1663ffffffff16815260200190815260200160002060000160009054906101000a900473ffffffffffffffffffffffffffffffffffffffff1673ffffffffffffffffffffffffffffffffffffffff161461052c576040517f08c379a00000000000000000000000000000000000000000000000000000000081526004018080602001828103825260118152602001807f4e6f74206f776e696e6720706c616e657400000000000000000000000000000081525060200191505060405180910390fd5b61057f565b6000600460008373ffffffffffffffffffffffffffffffffffffffff1673ffffffffffffffffffffffffffffffffffffffff16815260200190815260200160002054141561057e57600080fd5b5b8433600260009054906101000a900463ffffffff1663ffffffff168263ffffffff161461068e578073ffffffffffffffffffffffffffffffffffffffff16600360008463ffffffff1663ffffffff16815260200190815260200160002060000160009054906101000a900473ffffffffffffffffffffffffffffffffffffffff1673ffffffffffffffffffffffffffffffffffffffff1614610689576040517f08c379a00000000000000000000000000000000000000000000000000000000081526004018080602001828103825260118152602001807f4e6f74206f776e696e6720706c616e657400000000000000000000000000000081525060200191505060405180910390fd5b6106dc565b6000600460008373ffffffffffffffffffffffffffffffffffffffff1673ffffffffffffffffffffffffffffffffffffffff1681526020019081526020016000205414156106db57600080fd5b5b8467ffffffffffffffff166106f0886108cf565b67ffffffffffffffff16101561076e576040517f08c379a000000000000000000000000000000000000000000000000000000000815260040180806020018281038252601e8152602001807f4e6f7420656e6f75676820756e697473206f6e2066726f6d506c616e6574000081525060200191505060405180910390fd5b61077b87878760006111a7565b50505050505050565b60008082600260009054906101000a900463ffffffff1663ffffffff168163ffffffff1611156107b357600080fd5b600260009054906101000a900463ffffffff1663ffffffff168463ffffffff161415610885576000600460003373ffffffffffffffffffffffffffffffffffffffff1673ffffffffffffffffffffffffffffffffffffffff168152602001908152602001600020541415610872576040517f08c379a00000000000000000000000000000000000000000000000000000000081526004018080602001828103825260388152602001806113a66038913960400191505060405180910390fd5b60006001819150809050925092506108c9565b6000600285600260009054906101000a900463ffffffff160363ffffffff160a63ffffffff1690508060648267ffffffffffffffff16816108c257fe5b0493509350505b50915091565b600081600260009054906101000a900463ffffffff1663ffffffff168163ffffffff1611156108fd57600080fd5b600080600260009054906101000a900463ffffffff1663ffffffff168563ffffffff16141561097157600460003373ffffffffffffffffffffffffffffffffffffffff1673ffffffffffffffffffffffffffffffffffffffff16815260200190815260200160002054915060009050610a16565b6000600360008763ffffffff1663ffffffff1681526020019081526020016000209050600073ffffffffffffffffffffffffffffffffffffffff168160000160009054906101000a900473ffffffffffffffffffffffffffffffffffffffff1673ffffffffffffffffffffffffffffffffffffffff1614156109f95760009450505050610a4a565b806001015492508060020160009054906101000a9004600f0b9150505b60008243039050600080610a2988610784565b9150915060008167ffffffffffffffff168402850190508097505050505050505b50919050565b600154341015610aab576040517f08c379a00000000000000000000000000000000000000000000000000000000081526004018080602001828103825260478152602001806113046047913960600191505060405180910390fd5b6000600460003373ffffffffffffffffffffffffffffffffffffffff1673ffffffffffffffffffffffffffffffffffffffff1681526020019081526020016000205414610b43576040517f08c379a000000000000000000000000000000000000000000000000000000000815260040180806020018281038252602c81526020018061137a602c913960400191505060405180910390fd5b43600460003373ffffffffffffffffffffffffffffffffffffffff1673ffffffffffffffffffffffffffffffffffffffff168152602001908152602001600020819055503373ffffffffffffffffffffffffffffffffffffffff167f897cf4333c71c4fe8c42014ee1c38e854558b338aa872de7b8dd9881570f668460405160405180910390a2565b60036020528060005260406000206000915090508060000160009054906101000a900473ffffffffffffffffffffffffffffffffffffffff16908060010154908060020160009054906101000a9004600f0b905083565b6000809054906101000a900473ffffffffffffffffffffffffffffffffffffffff1681565b60015481565b8233600260009054906101000a900463ffffffff1663ffffffff168263ffffffff1614610d5d578073ffffffffffffffffffffffffffffffffffffffff16600360008463ffffffff1663ffffffff16815260200190815260200160002060000160009054906101000a900473ffffffffffffffffffffffffffffffffffffffff1673ffffffffffffffffffffffffffffffffffffffff1614610d58576040517f08c379a00000000000000000000000000000000000000000000000000000000081526004018080602001828103825260118152602001807f4e6f74206f776e696e6720706c616e657400000000000000000000000000000081525060200191505060405180910390fd5b610dab565b6000600460008373ffffffffffffffffffffffffffffffffffffffff1673ffffffffffffffffffffffffffffffffffffffff168152602001908152602001600020541415610daa57600080fd5b5b836000600260009054906101000a900463ffffffff1663ffffffff168263ffffffff1614610ebb578073ffffffffffffffffffffffffffffffffffffffff16600360008463ffffffff1663ffffffff16815260200190815260200160002060000160009054906101000a900473ffffffffffffffffffffffffffffffffffffffff1673ffffffffffffffffffffffffffffffffffffffff1614610eb6576040517f08c379a00000000000000000000000000000000000000000000000000000000081526004018080602001828103825260118152602001807f4e6f74206f776e696e6720706c616e657400000000000000000000000000000081525060200191505060405180910390fd5b610f09565b6000600460008373ffffffffffffffffffffffffffffffffffffffff1673ffffffffffffffffffffffffffffffffffffffff168152602001908152602001600020541415610f0857600080fd5b5b600080610f1588610784565b915091508667ffffffffffffffff16610f2d8a6108cf565b67ffffffffffffffff161015610fab576040517f08c379a000000000000000000000000000000000000000000000000000000000815260040180806020018281038252601e8152602001807f4e6f7420656e6f75676820756e697473206f6e2066726f6d506c616e6574000081525060200191505060405180910390fd5b8667ffffffffffffffff168267ffffffffffffffff161115611018576040517f08c379a000000000000000000000000000000000000000000000000000000000815260040180806020018281038252602f81526020018061134b602f913960400191505060405180910390fd5b60405180606001604052803373ffffffffffffffffffffffffffffffffffffffff1681526020014381526020016000600f0b815250600360008a63ffffffff1663ffffffff16815260200190815260200160002060008201518160000160006101000a81548173ffffffffffffffffffffffffffffffffffffffff021916908373ffffffffffffffffffffffffffffffffffffffff1602179055506020820151816001015560408201518160020160006101000a8154816fffffffffffffffffffffffffffffffff0219169083600f0b6fffffffffffffffffffffffffffffffff1602179055509050503373ffffffffffffffffffffffffffffffffffffffff167f4f87672e29557a95006fde6860e8ed4bbada9fe9ff630f4696373472247964c389848a03604051808363ffffffff1663ffffffff1681526020018267ffffffffffffffff1667ffffffffffffffff1681526020019250505060405180910390a2611186898989856111a7565b505050505050505050565b600260009054906101000a900463ffffffff1681565b8167ffffffffffffffff16600360008663ffffffff1663ffffffff16815260200190815260200160002060020160008282829054906101000a9004600f0b0392506101000a8154816fffffffffffffffffffffffffffffffff0219169083600f0b6fffffffffffffffffffffffffffffffff160217905550600081830390508067ffffffffffffffff16600360008663ffffffff1663ffffffff16815260200190815260200160002060020160006101000a8154816fffffffffffffffffffffffffffffffff0219169083600f0b6fffffffffffffffffffffffffffffffff1602179055503373ffffffffffffffffffffffffffffffffffffffff168463ffffffff168663ffffffff167ff8c35a079321431cc80e6caedad9fd67e7b42bdd99ae34e9b4c74b9eb524a0c186604051808267ffffffffffffffff1667ffffffffffffffff16815260200191505060405180910390a4505050505056fe546865207472616e73616374696f6e20646f6573206e6f7420636f6e7461696e20656e6f756768742076616c756520746f20636f7665722074686520737461727420636f7374735468652073656e64656420756e697420616d6f756e7420697320736d616c6c6572207468616e2074686520636f7374546865206164647265737320616c726561647920626f7567687420616e20696e697469616c20706c616e657443616e2774206861766520756e697473206f6e20737461727420706c616e6574206966206e6f7420616e2061637469766520706c61796572a265627a7a7231582053b2ecbdae9f2fcba71144f5bd3a234c4aeb553d3d25275d7f646b45dc4d524564736f6c63430005100032",
  "source": "pragma solidity >=0.4.22 <0.9.0;\n\ncontract SpaceY {\n    struct Planet {\n        address owner;\n        uint256 conquerBlockNumber;\n        int128 units;\n    }\n\n    address payable public owner;\n\n    uint256 public startCost;\n\n    uint32 public universeSize;\n\n    mapping(uint32 => Planet) public planets;\n    mapping(address => uint256) public playerStartBlocks;\n\n    constructor(uint32 size, uint256 startFee) public {\n        universeSize = size;\n        startCost = startFee;\n        owner = msg.sender;\n    }\n\n    modifier ownsPlanet(uint32 planetId, address person) {\n        if (planetId != universeSize) {\n            require(planets[planetId].owner == person, \"Not owning planet\");\n        } else {\n            require(playerStartBlocks[person] != 0);\n        }\n        _;\n    }\n\n    modifier planetExists(uint32 planetId) {\n        require(planetId <= universeSize);\n        _;\n    }\n\n    event InitialPlanetBought(address indexed player);\n    event PlanetConquered(\n        uint32 planetId,\n        address indexed player,\n        uint64 units\n    );\n    event UnitsMoved(\n        uint32 indexed fromPlanetId,\n        uint32 indexed toPlanetId,\n        address indexed player,\n        uint64 units\n    );\n\n    function getPlanetStats(uint32 planetId)\n        public\n        view\n        planetExists(planetId)\n        returns (uint64 unitsCost, uint64 unitsCreationRate)\n    {\n        if (planetId == universeSize) {\n            require(\n                playerStartBlocks[msg.sender] != 0,\n                \"Can't have units on start planet if not an active player\"\n            );\n            return (0, 1);\n        }\n        uint64 magnitute = (universeSize - planetId)**2;\n\n        return (magnitute, magnitute / 100);\n    }\n\n    function getUnitsOnPlanet(uint32 planetId)\n        public\n        view\n        planetExists(planetId)\n        returns (uint64 units)\n    {\n        uint256 conquerBlockNumber;\n        int128 staticUnits;\n        if (planetId == universeSize) {\n            conquerBlockNumber = playerStartBlocks[msg.sender];\n            staticUnits = 0;\n        } else {\n            Planet storage planet = planets[planetId];\n            if (planet.owner == address(0x0)) {\n                return 0;\n            }\n            conquerBlockNumber = planet.conquerBlockNumber;\n            staticUnits = planet.units;\n        }\n        uint256 blockDelta = block.number - conquerBlockNumber;\n        (uint64 _, uint64 unitsCreationRate) = getPlanetStats(planetId);\n        uint64 amount =\n            uint64(staticUnits + int128(blockDelta * unitsCreationRate));\n        return amount;\n    }\n\n    function buyInitialPlanet() external payable {\n        require(\n            msg.value >= startCost,\n            \"The transaction does not contain enought value to cover the start costs\"\n        );\n        require(\n            playerStartBlocks[msg.sender] == 0,\n            \"The address already bought an initial planet\"\n        );\n        playerStartBlocks[msg.sender] = block.number;\n        emit InitialPlanetBought(msg.sender);\n    }\n\n    function conquerPlanet(\n        uint32 fromPlanetId,\n        uint32 toPlanetId,\n        uint64 sendUnitAmount\n    )\n        external\n        ownsPlanet(fromPlanetId, msg.sender)\n        ownsPlanet(toPlanetId, address(0x0))\n    {\n        (uint64 unitsCost, uint64 _) = getPlanetStats(toPlanetId);\n        require(\n            getUnitsOnPlanet(fromPlanetId) >= sendUnitAmount,\n            \"Not enough units on fromPlanet\"\n        );\n        require(\n            unitsCost <= sendUnitAmount,\n            \"The sended unit amount is smaller than the cost\"\n        );\n\n        planets[toPlanetId] = Planet(msg.sender, block.number, 0);\n\n        emit PlanetConquered(\n            toPlanetId,\n            msg.sender,\n            sendUnitAmount - unitsCost\n        );\n        forceMoveUnits(fromPlanetId, toPlanetId, sendUnitAmount, unitsCost);\n    }\n\n    function moveUnits(\n        uint32 fromPlanetId,\n        uint32 toPlanetId,\n        uint64 sendUnitAmount\n    )\n        external\n        ownsPlanet(toPlanetId, msg.sender)\n        ownsPlanet(fromPlanetId, msg.sender)\n    {\n        require(\n            getUnitsOnPlanet(fromPlanetId) >= sendUnitAmount,\n            \"Not enough units on fromPlanet\"\n        );\n        forceMoveUnits(fromPlanetId, toPlanetId, sendUnitAmount, 0);\n    }\n\n    function forceMoveUnits(\n        uint32 fromPlanetId,\n        uint32 toPlanetId,\n        uint64 sendUnitAmount,\n        uint64 unitsCost\n    ) private {\n        planets[fromPlanetId].units -= sendUnitAmount;\n        uint64 remainingUnits = sendUnitAmount - unitsCost;\n        planets[toPlanetId].units = remainingUnits;\n        emit UnitsMoved(fromPlanetId, toPlanetId, msg.sender, sendUnitAmount);\n    }\n}\n",
  "sourcePath": "/home/manuel/projects/spacey/contracts/SpaceY.sol",
  "compiler": {
    "name": "solc",
    "version": "0.5.16+commit.9c3226ce.Emscripten.clang"
  },
  "schemaVersion": "3.3.3",
  "updatedAt": "2021-02-08T10:12:52.917Z",
  "networkType": "ethereum",
  "devdoc": {
    "methods": {}
  },
  "userdoc": {
    "methods": {}
  }
}