{
  "contractName": "SpaceY",
  "abi": [
    {
      "inputs": [
        {
          "internalType": "uint32",
          "name": "size",
          "type": "uint32"
        },
        {
          "internalType": "uint256",
          "name": "startFee",
          "type": "uint256"
        }
      ],
      "payable": false,
      "stateMutability": "nonpayable",
      "type": "constructor"
    },
    {
      "anonymous": false,
      "inputs": [
        {
          "indexed": false,
          "internalType": "uint32",
          "name": "planetId",
          "type": "uint32"
        },
        {
          "indexed": false,
          "internalType": "address",
          "name": "owner",
          "type": "address"
        },
        {
          "indexed": false,
          "internalType": "uint256",
          "name": "conquerBlockNumber",
          "type": "uint256"
        },
        {
          "indexed": false,
          "internalType": "int128",
          "name": "staticUnits",
          "type": "int128"
        },
        {
          "indexed": false,
          "internalType": "int128",
          "name": "dynamicUnits",
          "type": "int128"
        },
        {
          "indexed": false,
          "internalType": "uint64",
          "name": "totalUnits",
          "type": "uint64"
        }
      ],
      "name": "Debug_Planet",
      "type": "event"
    },
    {
      "anonymous": false,
      "inputs": [
        {
          "indexed": true,
          "internalType": "address",
          "name": "player",
          "type": "address"
        }
      ],
      "name": "InitialPlanetBought",
      "type": "event"
    },
    {
      "anonymous": false,
      "inputs": [
        {
          "indexed": false,
          "internalType": "uint32",
          "name": "planetId",
          "type": "uint32"
        },
        {
          "indexed": true,
          "internalType": "address",
          "name": "player",
          "type": "address"
        },
        {
          "indexed": false,
          "internalType": "uint64",
          "name": "units",
          "type": "uint64"
        }
      ],
      "name": "PlanetConquered",
      "type": "event"
    },
    {
      "anonymous": false,
      "inputs": [
        {
          "indexed": true,
          "internalType": "uint32",
          "name": "fromPlanetId",
          "type": "uint32"
        },
        {
          "indexed": true,
          "internalType": "uint32",
          "name": "toPlanetId",
          "type": "uint32"
        },
        {
          "indexed": true,
          "internalType": "address",
          "name": "player",
          "type": "address"
        },
        {
          "indexed": false,
          "internalType": "uint64",
          "name": "units",
          "type": "uint64"
        }
      ],
      "name": "UnitsMoved",
      "type": "event"
    },
    {
      "anonymous": false,
      "inputs": [
        {
          "indexed": false,
          "internalType": "uint32",
          "name": "fromPlanetId",
          "type": "uint32"
        },
        {
          "indexed": false,
          "internalType": "uint32",
          "name": "toPlanetId",
          "type": "uint32"
        },
        {
          "indexed": true,
          "internalType": "address",
          "name": "player",
          "type": "address"
        },
        {
          "indexed": false,
          "internalType": "uint64",
          "name": "units",
          "type": "uint64"
        }
      ],
      "name": "UnitsSendToConquer",
      "type": "event"
    },
    {
      "constant": true,
      "inputs": [],
      "name": "owner",
      "outputs": [
        {
          "internalType": "address payable",
          "name": "",
          "type": "address"
        }
      ],
      "payable": false,
      "stateMutability": "view",
      "type": "function"
    },
    {
      "constant": true,
      "inputs": [
        {
          "internalType": "uint32",
          "name": "",
          "type": "uint32"
        }
      ],
      "name": "planets",
      "outputs": [
        {
          "internalType": "address",
          "name": "owner",
          "type": "address"
        },
        {
          "internalType": "uint256",
          "name": "conquerBlockNumber",
          "type": "uint256"
        },
        {
          "internalType": "int128",
          "name": "units",
          "type": "int128"
        }
      ],
      "payable": false,
      "stateMutability": "view",
      "type": "function"
    },
    {
      "constant": true,
      "inputs": [],
      "name": "startCost",
      "outputs": [
        {
          "internalType": "uint256",
          "name": "",
          "type": "uint256"
        }
      ],
      "payable": false,
      "stateMutability": "view",
      "type": "function"
    },
    {
      "constant": true,
      "inputs": [
        {
          "internalType": "address",
          "name": "",
          "type": "address"
        }
      ],
      "name": "startPlanets",
      "outputs": [
        {
          "internalType": "address",
          "name": "owner",
          "type": "address"
        },
        {
          "internalType": "uint256",
          "name": "conquerBlockNumber",
          "type": "uint256"
        },
        {
          "internalType": "int128",
          "name": "units",
          "type": "int128"
        }
      ],
      "payable": false,
      "stateMutability": "view",
      "type": "function"
    },
    {
      "constant": true,
      "inputs": [],
      "name": "universeSize",
      "outputs": [
        {
          "internalType": "uint32",
          "name": "",
          "type": "uint32"
        }
      ],
      "payable": false,
      "stateMutability": "view",
      "type": "function"
    },
    {
      "constant": true,
      "inputs": [
        {
          "internalType": "uint32",
          "name": "planetId",
          "type": "uint32"
        }
      ],
      "name": "getPlanetStats",
      "outputs": [
        {
          "internalType": "uint64",
          "name": "unitsCost",
          "type": "uint64"
        },
        {
          "internalType": "uint64",
          "name": "unitsCreationRate",
          "type": "uint64"
        }
      ],
      "payable": false,
      "stateMutability": "view",
      "type": "function"
    },
    {
      "constant": true,
      "inputs": [
        {
          "internalType": "uint32",
          "name": "planetId",
          "type": "uint32"
        }
      ],
      "name": "getUnitsOnPlanet",
      "outputs": [
        {
          "internalType": "uint64",
          "name": "units",
          "type": "uint64"
        }
      ],
      "payable": false,
      "stateMutability": "view",
      "type": "function"
    },
    {
      "constant": true,
      "inputs": [
        {
          "internalType": "uint32",
          "name": "planetId",
          "type": "uint32"
        }
      ],
      "name": "getPlanet",
      "outputs": [
        {
          "internalType": "address",
          "name": "owner",
          "type": "address"
        },
        {
          "internalType": "uint256",
          "name": "conquerBlockNumber",
          "type": "uint256"
        },
        {
          "internalType": "int128",
          "name": "units",
          "type": "int128"
        }
      ],
      "payable": false,
      "stateMutability": "view",
      "type": "function"
    },
    {
      "constant": false,
      "inputs": [],
      "name": "buyInitialPlanet",
      "outputs": [],
      "payable": true,
      "stateMutability": "payable",
      "type": "function"
    },
    {
      "constant": false,
      "inputs": [
        {
          "internalType": "uint32[]",
          "name": "fromPlanetIds",
          "type": "uint32[]"
        },
        {
          "internalType": "uint32",
          "name": "toPlanetId",
          "type": "uint32"
        },
        {
          "internalType": "uint64[]",
          "name": "sendUnitAmounts",
          "type": "uint64[]"
        }
      ],
      "name": "conquerPlanet",
      "outputs": [],
      "payable": false,
      "stateMutability": "nonpayable",
      "type": "function"
    },
    {
      "constant": false,
      "inputs": [
        {
          "internalType": "uint32",
          "name": "fromPlanetId",
          "type": "uint32"
        },
        {
          "internalType": "uint32",
          "name": "toPlanetId",
          "type": "uint32"
        },
        {
          "internalType": "uint64",
          "name": "sendUnitAmount",
          "type": "uint64"
        }
      ],
      "name": "moveUnits",
      "outputs": [],
      "payable": false,
      "stateMutability": "nonpayable",
      "type": "function"
    }
  ],
  "bytecode": "0x608060405234801561001057600080fd5b506040516120893803806120898339818101604052604081101561003357600080fd5b81019080805190602001909291908051906020019092919050505081600260006101000a81548163ffffffff021916908363ffffffff16021790555080600181905550336000806101000a81548173ffffffffffffffffffffffffffffffffffffffff021916908373ffffffffffffffffffffffffffffffffffffffff1602179055505050611fc2806100c76000396000f3fe60806040526004361061009c5760003560e01c80636e2f1b95116100645780636e2f1b95146103735780637eea9ab81461037d5780638da5cb5b14610412578063b749aaf314610469578063d62b9b0814610494578063ddbf8a11146105395761009c565b80632ed9a1e0146100a157806348758b7514610106578063503f1a431461018a5780635bb406741461021f5780636b63dfb014610288575b600080fd5b3480156100ad57600080fd5b50610104600480360360608110156100c457600080fd5b81019080803563ffffffff169060200190929190803563ffffffff169060200190929190803567ffffffffffffffff169060200190929190505050610570565b005b34801561011257600080fd5b506101456004803603602081101561012957600080fd5b81019080803563ffffffff169060200190929190505050610a42565b604051808367ffffffffffffffff1667ffffffffffffffff1681526020018267ffffffffffffffff1667ffffffffffffffff1681526020019250505060405180910390f35b34801561019657600080fd5b506101c9600480360360208110156101ad57600080fd5b81019080803563ffffffff169060200190929190505050610bf9565b604051808473ffffffffffffffffffffffffffffffffffffffff1673ffffffffffffffffffffffffffffffffffffffff16815260200183815260200182600f0b600f0b8152602001935050505060405180910390f35b34801561022b57600080fd5b5061025e6004803603602081101561024257600080fd5b81019080803563ffffffff169060200190929190505050610ea4565b604051808267ffffffffffffffff1667ffffffffffffffff16815260200191505060405180910390f35b34801561029457600080fd5b50610371600480360360608110156102ab57600080fd5b81019080803590602001906401000000008111156102c857600080fd5b8201836020820111156102da57600080fd5b803590602001918460208302840111640100000000831117156102fc57600080fd5b9091929391929390803563ffffffff1690602001909291908035906020019064010000000081111561032d57600080fd5b82018360208201111561033f57600080fd5b8035906020019184602083028401116401000000008311171561036157600080fd5b9091929391929390505050611186565b005b61037b611787565b005b34801561038957600080fd5b506103bc600480360360208110156103a057600080fd5b81019080803563ffffffff169060200190929190505050611a18565b604051808473ffffffffffffffffffffffffffffffffffffffff1673ffffffffffffffffffffffffffffffffffffffff16815260200183815260200182600f0b600f0b8152602001935050505060405180910390f35b34801561041e57600080fd5b50610427611a6f565b604051808273ffffffffffffffffffffffffffffffffffffffff1673ffffffffffffffffffffffffffffffffffffffff16815260200191505060405180910390f35b34801561047557600080fd5b5061047e611a94565b6040518082815260200191505060405180910390f35b3480156104a057600080fd5b506104e3600480360360208110156104b757600080fd5b81019080803573ffffffffffffffffffffffffffffffffffffffff169060200190929190505050611a9a565b604051808473ffffffffffffffffffffffffffffffffffffffff1673ffffffffffffffffffffffffffffffffffffffff16815260200183815260200182600f0b600f0b8152602001935050505060405180910390f35b34801561054557600080fd5b5061054e611af1565b604051808263ffffffff1663ffffffff16815260200191505060405180910390f35b8133600260009054906101000a900463ffffffff1663ffffffff168263ffffffff161461067f578073ffffffffffffffffffffffffffffffffffffffff16600360008463ffffffff1663ffffffff16815260200190815260200160002060000160009054906101000a900473ffffffffffffffffffffffffffffffffffffffff1673ffffffffffffffffffffffffffffffffffffffff161461067a576040517f08c379a00000000000000000000000000000000000000000000000000000000081526004018080602001828103825260118152602001807f4e6f74206f776e696e6720706c616e657400000000000000000000000000000081525060200191505060405180910390fd5b610785565b600073ffffffffffffffffffffffffffffffffffffffff16600460008373ffffffffffffffffffffffffffffffffffffffff1673ffffffffffffffffffffffffffffffffffffffff16815260200190815260200160002060000160009054906101000a900473ffffffffffffffffffffffffffffffffffffffff1673ffffffffffffffffffffffffffffffffffffffff161415610784576040517f08c379a00000000000000000000000000000000000000000000000000000000081526004018080602001828103825260188152602001807f4e6f74206f776e696e67206f726967696e20706c616e6574000000000000000081525060200191505060405180910390fd5b5b8433600260009054906101000a900463ffffffff1663ffffffff168263ffffffff1614610894578073ffffffffffffffffffffffffffffffffffffffff16600360008463ffffffff1663ffffffff16815260200190815260200160002060000160009054906101000a900473ffffffffffffffffffffffffffffffffffffffff1673ffffffffffffffffffffffffffffffffffffffff161461088f576040517f08c379a00000000000000000000000000000000000000000000000000000000081526004018080602001828103825260118152602001807f4e6f74206f776e696e6720706c616e657400000000000000000000000000000081525060200191505060405180910390fd5b61099a565b600073ffffffffffffffffffffffffffffffffffffffff16600460008373ffffffffffffffffffffffffffffffffffffffff1673ffffffffffffffffffffffffffffffffffffffff16815260200190815260200160002060000160009054906101000a900473ffffffffffffffffffffffffffffffffffffffff1673ffffffffffffffffffffffffffffffffffffffff161415610999576040517f08c379a00000000000000000000000000000000000000000000000000000000081526004018080602001828103825260188152602001807f4e6f74206f776e696e67206f726967696e20706c616e6574000000000000000081525060200191505060405180910390fd5b5b8467ffffffffffffffff166109ae88610ea4565b67ffffffffffffffff161015610a2c576040517f08c379a000000000000000000000000000000000000000000000000000000000815260040180806020018281038252601e8152602001807f4e6f7420656e6f75676820756e697473206f6e2066726f6d506c616e6574000081525060200191505060405180910390fd5b610a398787876000611b07565b50505050505050565b60008082600260009054906101000a900463ffffffff1663ffffffff168163ffffffff161115610a7157600080fd5b600260009054906101000a900463ffffffff1663ffffffff168463ffffffff161415610b9257600073ffffffffffffffffffffffffffffffffffffffff16600460003373ffffffffffffffffffffffffffffffffffffffff1673ffffffffffffffffffffffffffffffffffffffff16815260200190815260200160002060000160009054906101000a900473ffffffffffffffffffffffffffffffffffffffff1673ffffffffffffffffffffffffffffffffffffffff161415610b7f576040517f08c379a0000000000000000000000000000000000000000000000000000000008152600401808060200182810382526038815260200180611efc6038913960400191505060405180910390fd5b6000600181915080905092509250610bf3565b6000600285600260009054906101000a900463ffffffff160363ffffffff160a63ffffffff169050600060648267ffffffffffffffff1681610bd057fe5b04905060008167ffffffffffffffff1611610bea57600190505b81819450945050505b50915091565b600080600083600260009054906101000a900463ffffffff1663ffffffff168163ffffffff161115610c2a57600080fd5b610c32611dc8565b600260009054906101000a900463ffffffff1663ffffffff168663ffffffff161415610ddb57600073ffffffffffffffffffffffffffffffffffffffff16600460003373ffffffffffffffffffffffffffffffffffffffff1673ffffffffffffffffffffffffffffffffffffffff16815260200190815260200160002060000160009054906101000a900473ffffffffffffffffffffffffffffffffffffffff1673ffffffffffffffffffffffffffffffffffffffff1614610dbc57600460003373ffffffffffffffffffffffffffffffffffffffff1673ffffffffffffffffffffffffffffffffffffffff1681526020019081526020016000206040518060600160405290816000820160009054906101000a900473ffffffffffffffffffffffffffffffffffffffff1673ffffffffffffffffffffffffffffffffffffffff1673ffffffffffffffffffffffffffffffffffffffff168152602001600182015481526020016002820160009054906101000a9004600f0b600f0b600f0b815250509050610dd6565b600080600082925081915080905094509450945050610e9c565b610e85565b600360008763ffffffff1663ffffffff1681526020019081526020016000206040518060600160405290816000820160009054906101000a900473ffffffffffffffffffffffffffffffffffffffff1673ffffffffffffffffffffffffffffffffffffffff1673ffffffffffffffffffffffffffffffffffffffff168152602001600182015481526020016002820160009054906101000a9004600f0b600f0b600f0b8152505090505b806000015181602001518260400151945094509450505b509193909250565b600081600260009054906101000a900463ffffffff1663ffffffff168163ffffffff161115610ed257600080fd5b610eda611dc8565b600260009054906101000a900463ffffffff1663ffffffff168463ffffffff16141561105857600460003373ffffffffffffffffffffffffffffffffffffffff1673ffffffffffffffffffffffffffffffffffffffff1681526020019081526020016000206040518060600160405290816000820160009054906101000a900473ffffffffffffffffffffffffffffffffffffffff1673ffffffffffffffffffffffffffffffffffffffff1673ffffffffffffffffffffffffffffffffffffffff168152602001600182015481526020016002820160009054906101000a9004600f0b600f0b600f0b815250509050600073ffffffffffffffffffffffffffffffffffffffff16816000015173ffffffffffffffffffffffffffffffffffffffff161415611053576040517f08c379a0000000000000000000000000000000000000000000000000000000008152600401808060200182810382526021815260200180611f346021913960400191505060405180910390fd5b611145565b600360008563ffffffff1663ffffffff1681526020019081526020016000206040518060600160405290816000820160009054906101000a900473ffffffffffffffffffffffffffffffffffffffff1673ffffffffffffffffffffffffffffffffffffffff1673ffffffffffffffffffffffffffffffffffffffff168152602001600182015481526020016002820160009054906101000a9004600f0b600f0b600f0b815250509050600073ffffffffffffffffffffffffffffffffffffffff16816000015173ffffffffffffffffffffffffffffffffffffffff161415611144576000925050611180565b5b600081602001514303905060008061115c87610a42565b9150915060008167ffffffffffffffff168402856040015101905080965050505050505b50919050565b82600073ffffffffffffffffffffffffffffffffffffffff16600360008363ffffffff1663ffffffff16815260200190815260200160002060000160009054906101000a900473ffffffffffffffffffffffffffffffffffffffff1673ffffffffffffffffffffffffffffffffffffffff161461126b576040517f08c379a00000000000000000000000000000000000000000000000000000000081526004018080602001828103825260158152602001807f506c616e6574206973206e6f7420756e6f776e6564000000000000000000000081525060200191505060405180910390fd5b8282905086869050146112c9576040517f08c379a0000000000000000000000000000000000000000000000000000000008152600401808060200182810382526035815260200180611e036035913960400191505060405180910390fd5b600080905060008090505b878790508163ffffffff16101561159457600061130e89898463ffffffff168181106112fc57fe5b9050602002013563ffffffff16610bf9565b505090503373ffffffffffffffffffffffffffffffffffffffff168173ffffffffffffffffffffffffffffffffffffffff1614611396576040517f08c379a0000000000000000000000000000000000000000000000000000000008152600401808060200182810382526022815260200180611eae6022913960400191505060405180910390fd5b85858363ffffffff168181106113a857fe5b9050602002013567ffffffffffffffff1667ffffffffffffffff166113ea8a8a8563ffffffff168181106113d857fe5b9050602002013563ffffffff16610ea4565b67ffffffffffffffff16101561144b576040517f08c379a0000000000000000000000000000000000000000000000000000000008152600401808060200182810382526039815260200180611f556039913960400191505060405180910390fd5b61149589898463ffffffff1681811061146057fe5b9050602002013563ffffffff1687878563ffffffff1681811061147f57fe5b9050602002013567ffffffffffffffff16611c89565b85858363ffffffff168181106114a757fe5b9050602002013567ffffffffffffffff16830192503373ffffffffffffffffffffffffffffffffffffffff167fcc91208288643ca92081f29df87a0d89a75313fe20f7bb9f3b7177527b9e3d528a8a8563ffffffff1681811061150657fe5b9050602002013563ffffffff168989898763ffffffff1681811061152657fe5b9050602002013567ffffffffffffffff16604051808463ffffffff1663ffffffff1681526020018363ffffffff1663ffffffff1681526020018267ffffffffffffffff1667ffffffffffffffff168152602001935050505060405180910390a25080806001019150506112d4565b5060006115a086610a42565b5090508167ffffffffffffffff168167ffffffffffffffff161115611610576040517f08c379a000000000000000000000000000000000000000000000000000000000815260040180806020018281038252602f815260200180611e7f602f913960400191505060405180910390fd5b60405180606001604052803373ffffffffffffffffffffffffffffffffffffffff16815260200143815260200182840367ffffffffffffffff16600f0b815250600360008863ffffffff1663ffffffff16815260200190815260200160002060008201518160000160006101000a81548173ffffffffffffffffffffffffffffffffffffffff021916908373ffffffffffffffffffffffffffffffffffffffff1602179055506020820151816001015560408201518160020160006101000a8154816fffffffffffffffffffffffffffffffff0219169083600f0b6fffffffffffffffffffffffffffffffff1602179055509050503373ffffffffffffffffffffffffffffffffffffffff167f4f87672e29557a95006fde6860e8ed4bbada9fe9ff630f4696373472247964c387838503604051808363ffffffff1663ffffffff1681526020018267ffffffffffffffff1667ffffffffffffffff1681526020019250505060405180910390a25050505050505050565b6001543410156117e2576040517f08c379a0000000000000000000000000000000000000000000000000000000008152600401808060200182810382526047815260200180611e386047913960600191505060405180910390fd5b600073ffffffffffffffffffffffffffffffffffffffff16600460003373ffffffffffffffffffffffffffffffffffffffff1673ffffffffffffffffffffffffffffffffffffffff16815260200190815260200160002060000160009054906101000a900473ffffffffffffffffffffffffffffffffffffffff1673ffffffffffffffffffffffffffffffffffffffff16146118c9576040517f08c379a000000000000000000000000000000000000000000000000000000000815260040180806020018281038252602c815260200180611ed0602c913960400191505060405180910390fd5b60405180606001604052803373ffffffffffffffffffffffffffffffffffffffff1681526020014381526020016000600f0b815250600460003373ffffffffffffffffffffffffffffffffffffffff1673ffffffffffffffffffffffffffffffffffffffff16815260200190815260200160002060008201518160000160006101000a81548173ffffffffffffffffffffffffffffffffffffffff021916908373ffffffffffffffffffffffffffffffffffffffff1602179055506020820151816001015560408201518160020160006101000a8154816fffffffffffffffffffffffffffffffff0219169083600f0b6fffffffffffffffffffffffffffffffff1602179055509050503373ffffffffffffffffffffffffffffffffffffffff167f897cf4333c71c4fe8c42014ee1c38e854558b338aa872de7b8dd9881570f668460405160405180910390a2565b60036020528060005260406000206000915090508060000160009054906101000a900473ffffffffffffffffffffffffffffffffffffffff16908060010154908060020160009054906101000a9004600f0b905083565b6000809054906101000a900473ffffffffffffffffffffffffffffffffffffffff1681565b60015481565b60046020528060005260406000206000915090508060000160009054906101000a900473ffffffffffffffffffffffffffffffffffffffff16908060010154908060020160009054906101000a9004600f0b905083565b600260009054906101000a900463ffffffff1681565b600260009054906101000a900463ffffffff1663ffffffff168363ffffffff161415611b9b576040517f08c379a000000000000000000000000000000000000000000000000000000000815260040180806020018281038252601d8152602001807f54617267657420706c616e65742063616e2774206265206f726967696e00000081525060200191505060405180910390fd5b611ba58483611c89565b600081830390508067ffffffffffffffff16600360008663ffffffff1663ffffffff16815260200190815260200160002060020160006101000a8154816fffffffffffffffffffffffffffffffff0219169083600f0b6fffffffffffffffffffffffffffffffff1602179055503373ffffffffffffffffffffffffffffffffffffffff168463ffffffff168663ffffffff167ff8c35a079321431cc80e6caedad9fd67e7b42bdd99ae34e9b4c74b9eb524a0c186604051808267ffffffffffffffff1667ffffffffffffffff16815260200191505060405180910390a45050505050565b600260009054906101000a900463ffffffff1663ffffffff168263ffffffff1614611d2b578067ffffffffffffffff16600360008463ffffffff1663ffffffff16815260200190815260200160002060020160008282829054906101000a9004600f0b0392506101000a8154816fffffffffffffffffffffffffffffffff0219169083600f0b6fffffffffffffffffffffffffffffffff160217905550611dc4565b8067ffffffffffffffff16600460003373ffffffffffffffffffffffffffffffffffffffff1673ffffffffffffffffffffffffffffffffffffffff16815260200190815260200160002060020160008282829054906101000a9004600f0b0392506101000a8154816fffffffffffffffffffffffffffffffff0219169083600f0b6fffffffffffffffffffffffffffffffff1602179055505b5050565b6040518060600160405280600073ffffffffffffffffffffffffffffffffffffffff168152602001600081526020016000600f0b8152509056fe4c656e677468206f6620706c616e6574496473206861766520746f206d61746368206c656e677468206f662073656e64556e697473546865207472616e73616374696f6e20646f6573206e6f7420636f6e7461696e20656e6f756768742076616c756520746f20636f7665722074686520737461727420636f7374735468652073656e64656420756e697420616d6f756e7420697320736d616c6c6572207468616e2074686520636f7374506c617965722068617320746f206f776e20616c6c2066726f6d20706c616e657473546865206164647265737320616c726561647920626f7567687420616e20696e697469616c20706c616e657443616e2774206861766520756e697473206f6e20737461727420706c616e6574206966206e6f7420616e2061637469766520706c61796572506c6179657220646f6573206e6f74206f776e206f726967696e20706c616e65744e6f7420656e6f75676820756e697473206f6e206f6e652066726f6d506c616e657420746f2066756c6c66696c6c2073656e64416d6f756e74a265627a7a72315820abd9e880b5025fb9169c1c7725de91165e9d0aa8789fc57cdfab428ca43ede5b64736f6c63430005100032",
  "source": "pragma solidity >=0.4.22 <0.9.0;\n\ncontract SpaceY {\n    struct Planet {\n        address owner;\n        uint256 conquerBlockNumber;\n        int128 units;\n    }\n\n    address payable public owner;\n\n    uint256 public startCost;\n\n    uint32 public universeSize;\n\n    mapping(uint32 => Planet) public planets;\n    mapping(address => Planet) public startPlanets;\n\n    constructor(uint32 size, uint256 startFee) public {\n        universeSize = size;\n        startCost = startFee;\n        owner = msg.sender;\n    }\n\n    modifier ownsPlanet(uint32 planetId, address person) {\n        if (planetId != universeSize) {\n            require(planets[planetId].owner == person, \"Not owning planet\");\n        } else {\n            require(\n                startPlanets[person].owner != address(0x0),\n                \"Not owning origin planet\"\n            );\n        }\n        _;\n    }\n\n    modifier unownedPlanet(uint32 planetId) {\n        require(\n            planets[planetId].owner == address(0x0),\n            \"Planet is not unowned\"\n        );\n        _;\n    }\n\n    modifier planetExists(uint32 planetId) {\n        require(planetId <= universeSize);\n        _;\n    }\n\n    event InitialPlanetBought(address indexed player);\n    event UnitsSendToConquer(\n        uint32 fromPlanetId,\n        uint32 toPlanetId,\n        address indexed player,\n        uint64 units\n    );\n    event PlanetConquered(\n        uint32 planetId,\n        address indexed player,\n        uint64 units\n    );\n    event UnitsMoved(\n        uint32 indexed fromPlanetId,\n        uint32 indexed toPlanetId,\n        address indexed player,\n        uint64 units\n    );\n\n    event Debug_Planet(\n        uint32 planetId,\n        address owner,\n        uint256 conquerBlockNumber,\n        int128 staticUnits,\n        int128 dynamicUnits,\n        uint64 totalUnits\n    );\n\n    function debug_emitPlanet(uint32 planetId) private {\n        Planet memory planet;\n        if (planetId == universeSize) {\n            planet = startPlanets[msg.sender];\n        } else {\n            planet = planets[planetId];\n        }\n        uint256 blockDelta = block.number - planet.conquerBlockNumber;\n        (uint64 _, uint64 unitsCreationRate) = getPlanetStats(planetId);\n        int128 dynamicUnits = int128(blockDelta * unitsCreationRate);\n        uint64 totalUnits = uint64(planet.units + dynamicUnits);\n        emit Debug_Planet(\n            planetId,\n            planet.owner,\n            planet.conquerBlockNumber,\n            planet.units,\n            dynamicUnits,\n            totalUnits\n        );\n    }\n\n    function getPlanetStats(uint32 planetId)\n        public\n        view\n        planetExists(planetId)\n        returns (uint64 unitsCost, uint64 unitsCreationRate)\n    {\n        if (planetId == universeSize) {\n            require(\n                startPlanets[msg.sender].owner != address(0x0),\n                \"Can't have units on start planet if not an active player\"\n            );\n            return (0, 1);\n        }\n        uint64 magnitute = (universeSize - planetId)**2;\n        uint64 productionRate = magnitute / 100;\n        if (productionRate <= 0) {\n            productionRate = 1;\n        }\n        return (magnitute, productionRate);\n    }\n\n    function getUnitsOnPlanet(uint32 planetId)\n        public\n        view\n        planetExists(planetId)\n        returns (uint64 units)\n    {\n        Planet memory planet;\n        if (planetId == universeSize) {\n            planet = startPlanets[msg.sender];\n            require(\n                planet.owner != address(0x0),\n                \"Player does not own origin planet\"\n            );\n        } else {\n            planet = planets[planetId];\n            if (planet.owner == address(0x0)) {\n                return 0;\n            }\n        }\n        uint256 blockDelta = block.number - planet.conquerBlockNumber;\n        (uint64 _, uint64 unitsCreationRate) = getPlanetStats(planetId);\n        uint64 amount =\n            uint64(planet.units + int128(blockDelta * unitsCreationRate));\n        return amount;\n    }\n\n    function getPlanet(uint32 planetId)\n        public\n        view\n        planetExists(planetId)\n        returns (\n            address owner,\n            uint256 conquerBlockNumber,\n            int128 units\n        )\n    {\n        Planet memory planet;\n        if (planetId == universeSize) {\n            if (startPlanets[msg.sender].owner != address(0x0)) {\n                planet = startPlanets[msg.sender];\n            } else {\n                return (address(0x0), 0, 0);\n            }\n        } else {\n            planet = planets[planetId];\n        }\n        return (planet.owner, planet.conquerBlockNumber, planet.units);\n    }\n\n    function buyInitialPlanet() external payable {\n        require(\n            msg.value >= startCost,\n            \"The transaction does not contain enought value to cover the start costs\"\n        );\n        require(\n            startPlanets[msg.sender].owner == address(0x0),\n            \"The address already bought an initial planet\"\n        );\n        startPlanets[msg.sender] = Planet(msg.sender, block.number, 0);\n        emit InitialPlanetBought(msg.sender);\n    }\n\n    function conquerPlanet(\n        uint32[] calldata fromPlanetIds,\n        uint32 toPlanetId,\n        uint64[] calldata sendUnitAmounts\n    ) external unownedPlanet(toPlanetId) {\n        require(\n            fromPlanetIds.length == sendUnitAmounts.length,\n            \"Length of planetIds have to match length of sendUnits\"\n        );\n        uint64 totalSendAmount = 0;\n        for (uint32 i = 0; i < fromPlanetIds.length; i++) {\n            (address planetOwner, , ) = getPlanet(fromPlanetIds[i]);\n            require(\n                planetOwner == msg.sender,\n                \"Player has to own all from planets\"\n            );\n            require(\n                getUnitsOnPlanet(fromPlanetIds[i]) >= sendUnitAmounts[i],\n                \"Not enough units on one fromPlanet to fullfill sendAmount\"\n            );\n            removeUnitsFrom(fromPlanetIds[i], sendUnitAmounts[i]);\n            totalSendAmount += sendUnitAmounts[i];\n            emit UnitsSendToConquer(\n                fromPlanetIds[i],\n                toPlanetId,\n                msg.sender,\n                sendUnitAmounts[i]\n            );\n        }\n        (uint64 unitsCost, ) = getPlanetStats(toPlanetId);\n        require(\n            unitsCost <= totalSendAmount,\n            \"The sended unit amount is smaller than the cost\"\n        );\n\n        planets[toPlanetId] = Planet(\n            msg.sender,\n            block.number,\n            totalSendAmount - unitsCost\n        );\n\n        emit PlanetConquered(\n            toPlanetId,\n            msg.sender,\n            totalSendAmount - unitsCost\n        );\n    }\n\n    function moveUnits(\n        uint32 fromPlanetId,\n        uint32 toPlanetId,\n        uint64 sendUnitAmount\n    )\n        public\n        ownsPlanet(toPlanetId, msg.sender)\n        ownsPlanet(fromPlanetId, msg.sender)\n    {\n        require(\n            getUnitsOnPlanet(fromPlanetId) >= sendUnitAmount,\n            \"Not enough units on fromPlanet\"\n        );\n        forceMoveUnits(fromPlanetId, toPlanetId, sendUnitAmount, 0);\n    }\n\n    function forceMoveUnits(\n        uint32 fromPlanetId,\n        uint32 toPlanetId,\n        uint64 sendUnitAmount,\n        uint64 unitsCost\n    ) private {\n        require(toPlanetId != universeSize, \"Target planet can't be origin\");\n        removeUnitsFrom(fromPlanetId, sendUnitAmount);\n        uint64 remainingUnits = sendUnitAmount - unitsCost;\n        planets[toPlanetId].units = remainingUnits;\n        emit UnitsMoved(fromPlanetId, toPlanetId, msg.sender, sendUnitAmount);\n    }\n\n    function removeUnitsFrom(uint32 planetId, uint64 unitAmount) private {\n        if (planetId != universeSize) {\n            planets[planetId].units -= unitAmount;\n        } else {\n            startPlanets[msg.sender].units -= unitAmount;\n        }\n    }\n}\n",
  "sourcePath": "/home/manuel/projects/spacey/contracts/SpaceY.sol",
  "compiler": {
    "name": "solc",
    "version": "0.5.16+commit.9c3226ce.Emscripten.clang"
  },
  "schemaVersion": "3.3.3",
  "updatedAt": "2021-02-09T17:05:20.569Z",
  "networkType": "ethereum",
  "devdoc": {
    "methods": {}
  },
  "userdoc": {
    "methods": {}
  }
}