{
  "contractName": "SpaceY",
  "abi": [
    {
      "inputs": [
        {
          "internalType": "uint32",
          "name": "size",
          "type": "uint32"
        },
        {
          "internalType": "uint256",
          "name": "startFee",
          "type": "uint256"
        }
      ],
      "payable": false,
      "stateMutability": "nonpayable",
      "type": "constructor"
    },
    {
      "anonymous": false,
      "inputs": [
        {
          "indexed": true,
          "internalType": "address",
          "name": "player",
          "type": "address"
        }
      ],
      "name": "InitialPlanetBought",
      "type": "event"
    },
    {
      "anonymous": false,
      "inputs": [
        {
          "indexed": false,
          "internalType": "uint32",
          "name": "planetId",
          "type": "uint32"
        },
        {
          "indexed": true,
          "internalType": "address",
          "name": "player",
          "type": "address"
        },
        {
          "indexed": false,
          "internalType": "uint64",
          "name": "units",
          "type": "uint64"
        }
      ],
      "name": "PlanetConquered",
      "type": "event"
    },
    {
      "anonymous": false,
      "inputs": [
        {
          "indexed": true,
          "internalType": "uint32",
          "name": "fromPlanetId",
          "type": "uint32"
        },
        {
          "indexed": true,
          "internalType": "uint32",
          "name": "toPlanetId",
          "type": "uint32"
        },
        {
          "indexed": true,
          "internalType": "address",
          "name": "player",
          "type": "address"
        },
        {
          "indexed": false,
          "internalType": "uint64",
          "name": "units",
          "type": "uint64"
        }
      ],
      "name": "UnitsMoved",
      "type": "event"
    },
    {
      "constant": true,
      "inputs": [],
      "name": "owner",
      "outputs": [
        {
          "internalType": "address payable",
          "name": "",
          "type": "address"
        }
      ],
      "payable": false,
      "stateMutability": "view",
      "type": "function"
    },
    {
      "constant": true,
      "inputs": [
        {
          "internalType": "uint32",
          "name": "",
          "type": "uint32"
        }
      ],
      "name": "planets",
      "outputs": [
        {
          "internalType": "address",
          "name": "owner",
          "type": "address"
        },
        {
          "internalType": "uint256",
          "name": "conquerBlockNumber",
          "type": "uint256"
        },
        {
          "internalType": "int128",
          "name": "units",
          "type": "int128"
        }
      ],
      "payable": false,
      "stateMutability": "view",
      "type": "function"
    },
    {
      "constant": true,
      "inputs": [],
      "name": "startCost",
      "outputs": [
        {
          "internalType": "uint256",
          "name": "",
          "type": "uint256"
        }
      ],
      "payable": false,
      "stateMutability": "view",
      "type": "function"
    },
    {
      "constant": true,
      "inputs": [
        {
          "internalType": "address",
          "name": "",
          "type": "address"
        }
      ],
      "name": "startPlanets",
      "outputs": [
        {
          "internalType": "address",
          "name": "owner",
          "type": "address"
        },
        {
          "internalType": "uint256",
          "name": "conquerBlockNumber",
          "type": "uint256"
        },
        {
          "internalType": "int128",
          "name": "units",
          "type": "int128"
        }
      ],
      "payable": false,
      "stateMutability": "view",
      "type": "function"
    },
    {
      "constant": true,
      "inputs": [],
      "name": "universeSize",
      "outputs": [
        {
          "internalType": "uint32",
          "name": "",
          "type": "uint32"
        }
      ],
      "payable": false,
      "stateMutability": "view",
      "type": "function"
    },
    {
      "constant": true,
      "inputs": [
        {
          "internalType": "uint32",
          "name": "planetId",
          "type": "uint32"
        }
      ],
      "name": "getPlanetStats",
      "outputs": [
        {
          "internalType": "uint64",
          "name": "unitsCost",
          "type": "uint64"
        },
        {
          "internalType": "uint64",
          "name": "unitsCreationRate",
          "type": "uint64"
        }
      ],
      "payable": false,
      "stateMutability": "view",
      "type": "function"
    },
    {
      "constant": true,
      "inputs": [
        {
          "internalType": "uint32",
          "name": "planetId",
          "type": "uint32"
        }
      ],
      "name": "getUnitsOnPlanet",
      "outputs": [
        {
          "internalType": "uint64",
          "name": "units",
          "type": "uint64"
        }
      ],
      "payable": false,
      "stateMutability": "view",
      "type": "function"
    },
    {
      "constant": true,
      "inputs": [
        {
          "internalType": "uint32",
          "name": "planetId",
          "type": "uint32"
        }
      ],
      "name": "getPlanet",
      "outputs": [
        {
          "internalType": "address",
          "name": "owner",
          "type": "address"
        },
        {
          "internalType": "uint256",
          "name": "conquerBlockNumber",
          "type": "uint256"
        },
        {
          "internalType": "int128",
          "name": "units",
          "type": "int128"
        }
      ],
      "payable": false,
      "stateMutability": "view",
      "type": "function"
    },
    {
      "constant": false,
      "inputs": [],
      "name": "buyInitialPlanet",
      "outputs": [],
      "payable": true,
      "stateMutability": "payable",
      "type": "function"
    },
    {
      "constant": false,
      "inputs": [
        {
          "internalType": "uint32",
          "name": "fromPlanetId",
          "type": "uint32"
        },
        {
          "internalType": "uint32",
          "name": "toPlanetId",
          "type": "uint32"
        },
        {
          "internalType": "uint64",
          "name": "sendUnitAmount",
          "type": "uint64"
        }
      ],
      "name": "conquerPlanet",
      "outputs": [],
      "payable": false,
      "stateMutability": "nonpayable",
      "type": "function"
    },
    {
      "constant": false,
      "inputs": [
        {
          "internalType": "uint32",
          "name": "fromPlanetId",
          "type": "uint32"
        },
        {
          "internalType": "uint32",
          "name": "toPlanetId",
          "type": "uint32"
        },
        {
          "internalType": "uint64",
          "name": "sendUnitAmount",
          "type": "uint64"
        }
      ],
      "name": "moveUnits",
      "outputs": [],
      "payable": false,
      "stateMutability": "nonpayable",
      "type": "function"
    }
  ],
  "bytecode": "0x608060405234801561001057600080fd5b50604051611d8e380380611d8e8339818101604052604081101561003357600080fd5b81019080805190602001909291908051906020019092919050505081600260006101000a81548163ffffffff021916908363ffffffff16021790555080600181905550336000806101000a81548173ffffffffffffffffffffffffffffffffffffffff021916908373ffffffffffffffffffffffffffffffffffffffff1602179055505050611cc7806100c76000396000f3fe60806040526004361061009c5760003560e01c80637eea9ab8116100645780637eea9ab8146102925780638da5cb5b14610327578063b749aaf31461037e578063cb545de6146103a9578063d62b9b081461040e578063ddbf8a11146104b35761009c565b80632ed9a1e0146100a157806348758b7514610106578063503f1a431461018a5780635bb406741461021f5780636e2f1b9514610288575b600080fd5b3480156100ad57600080fd5b50610104600480360360608110156100c457600080fd5b81019080803563ffffffff169060200190929190803563ffffffff169060200190929190803567ffffffffffffffff1690602001909291905050506104ea565b005b34801561011257600080fd5b506101456004803603602081101561012957600080fd5b81019080803563ffffffff1690602001909291905050506109bc565b604051808367ffffffffffffffff1667ffffffffffffffff1681526020018267ffffffffffffffff1667ffffffffffffffff1681526020019250505060405180910390f35b34801561019657600080fd5b506101c9600480360360208110156101ad57600080fd5b81019080803563ffffffff169060200190929190505050610b73565b604051808473ffffffffffffffffffffffffffffffffffffffff1673ffffffffffffffffffffffffffffffffffffffff16815260200183815260200182600f0b600f0b8152602001935050505060405180910390f35b34801561022b57600080fd5b5061025e6004803603602081101561024257600080fd5b81019080803563ffffffff169060200190929190505050610e1e565b604051808267ffffffffffffffff1667ffffffffffffffff16815260200191505060405180910390f35b610290611100565b005b34801561029e57600080fd5b506102d1600480360360208110156102b557600080fd5b81019080803563ffffffff169060200190929190505050611391565b604051808473ffffffffffffffffffffffffffffffffffffffff1673ffffffffffffffffffffffffffffffffffffffff16815260200183815260200182600f0b600f0b8152602001935050505060405180910390f35b34801561033357600080fd5b5061033c6113e8565b604051808273ffffffffffffffffffffffffffffffffffffffff1673ffffffffffffffffffffffffffffffffffffffff16815260200191505060405180910390f35b34801561038a57600080fd5b5061039361140d565b6040518082815260200191505060405180910390f35b3480156103b557600080fd5b5061040c600480360360608110156103cc57600080fd5b81019080803563ffffffff169060200190929190803563ffffffff169060200190929190803567ffffffffffffffff169060200190929190505050611413565b005b34801561041a57600080fd5b5061045d6004803603602081101561043157600080fd5b81019080803573ffffffffffffffffffffffffffffffffffffffff169060200190929190505050611994565b604051808473ffffffffffffffffffffffffffffffffffffffff1673ffffffffffffffffffffffffffffffffffffffff16815260200183815260200182600f0b600f0b8152602001935050505060405180910390f35b3480156104bf57600080fd5b506104c86119eb565b604051808263ffffffff1663ffffffff16815260200191505060405180910390f35b8133600260009054906101000a900463ffffffff1663ffffffff168263ffffffff16146105f9578073ffffffffffffffffffffffffffffffffffffffff16600360008463ffffffff1663ffffffff16815260200190815260200160002060000160009054906101000a900473ffffffffffffffffffffffffffffffffffffffff1673ffffffffffffffffffffffffffffffffffffffff16146105f4576040517f08c379a00000000000000000000000000000000000000000000000000000000081526004018080602001828103825260118152602001807f4e6f74206f776e696e6720706c616e657400000000000000000000000000000081525060200191505060405180910390fd5b6106ff565b600073ffffffffffffffffffffffffffffffffffffffff16600460008373ffffffffffffffffffffffffffffffffffffffff1673ffffffffffffffffffffffffffffffffffffffff16815260200190815260200160002060000160009054906101000a900473ffffffffffffffffffffffffffffffffffffffff1673ffffffffffffffffffffffffffffffffffffffff1614156106fe576040517f08c379a00000000000000000000000000000000000000000000000000000000081526004018080602001828103825260188152602001807f4e6f74206f776e696e67206f726967696e20706c616e6574000000000000000081525060200191505060405180910390fd5b5b8433600260009054906101000a900463ffffffff1663ffffffff168263ffffffff161461080e578073ffffffffffffffffffffffffffffffffffffffff16600360008463ffffffff1663ffffffff16815260200190815260200160002060000160009054906101000a900473ffffffffffffffffffffffffffffffffffffffff1673ffffffffffffffffffffffffffffffffffffffff1614610809576040517f08c379a00000000000000000000000000000000000000000000000000000000081526004018080602001828103825260118152602001807f4e6f74206f776e696e6720706c616e657400000000000000000000000000000081525060200191505060405180910390fd5b610914565b600073ffffffffffffffffffffffffffffffffffffffff16600460008373ffffffffffffffffffffffffffffffffffffffff1673ffffffffffffffffffffffffffffffffffffffff16815260200190815260200160002060000160009054906101000a900473ffffffffffffffffffffffffffffffffffffffff1673ffffffffffffffffffffffffffffffffffffffff161415610913576040517f08c379a00000000000000000000000000000000000000000000000000000000081526004018080602001828103825260188152602001807f4e6f74206f776e696e67206f726967696e20706c616e6574000000000000000081525060200191505060405180910390fd5b5b8467ffffffffffffffff1661092888610e1e565b67ffffffffffffffff1610156109a6576040517f08c379a000000000000000000000000000000000000000000000000000000000815260040180806020018281038252601e8152602001807f4e6f7420656e6f75676820756e697473206f6e2066726f6d506c616e6574000081525060200191505060405180910390fd5b6109b38787876000611a01565b50505050505050565b60008082600260009054906101000a900463ffffffff1663ffffffff168163ffffffff1611156109eb57600080fd5b600260009054906101000a900463ffffffff1663ffffffff168463ffffffff161415610b0c57600073ffffffffffffffffffffffffffffffffffffffff16600460003373ffffffffffffffffffffffffffffffffffffffff1673ffffffffffffffffffffffffffffffffffffffff16815260200190815260200160002060000160009054906101000a900473ffffffffffffffffffffffffffffffffffffffff1673ffffffffffffffffffffffffffffffffffffffff161415610af9576040517f08c379a0000000000000000000000000000000000000000000000000000000008152600401808060200182810382526038815260200180611c3a6038913960400191505060405180910390fd5b6000600181915080905092509250610b6d565b6000600285600260009054906101000a900463ffffffff160363ffffffff160a63ffffffff169050600060648267ffffffffffffffff1681610b4a57fe5b04905060008167ffffffffffffffff1611610b6457600190505b81819450945050505b50915091565b600080600083600260009054906101000a900463ffffffff1663ffffffff168163ffffffff161115610ba457600080fd5b610bac611b5d565b600260009054906101000a900463ffffffff1663ffffffff168663ffffffff161415610d5557600073ffffffffffffffffffffffffffffffffffffffff16600460003373ffffffffffffffffffffffffffffffffffffffff1673ffffffffffffffffffffffffffffffffffffffff16815260200190815260200160002060000160009054906101000a900473ffffffffffffffffffffffffffffffffffffffff1673ffffffffffffffffffffffffffffffffffffffff1614610d3657600460003373ffffffffffffffffffffffffffffffffffffffff1673ffffffffffffffffffffffffffffffffffffffff1681526020019081526020016000206040518060600160405290816000820160009054906101000a900473ffffffffffffffffffffffffffffffffffffffff1673ffffffffffffffffffffffffffffffffffffffff1673ffffffffffffffffffffffffffffffffffffffff168152602001600182015481526020016002820160009054906101000a9004600f0b600f0b600f0b815250509050610d50565b600080600082925081915080905094509450945050610e16565b610dff565b600360008763ffffffff1663ffffffff1681526020019081526020016000206040518060600160405290816000820160009054906101000a900473ffffffffffffffffffffffffffffffffffffffff1673ffffffffffffffffffffffffffffffffffffffff1673ffffffffffffffffffffffffffffffffffffffff168152602001600182015481526020016002820160009054906101000a9004600f0b600f0b600f0b8152505090505b806000015181602001518260400151945094509450505b509193909250565b600081600260009054906101000a900463ffffffff1663ffffffff168163ffffffff161115610e4c57600080fd5b610e54611b5d565b600260009054906101000a900463ffffffff1663ffffffff168463ffffffff161415610fd257600460003373ffffffffffffffffffffffffffffffffffffffff1673ffffffffffffffffffffffffffffffffffffffff1681526020019081526020016000206040518060600160405290816000820160009054906101000a900473ffffffffffffffffffffffffffffffffffffffff1673ffffffffffffffffffffffffffffffffffffffff1673ffffffffffffffffffffffffffffffffffffffff168152602001600182015481526020016002820160009054906101000a9004600f0b600f0b600f0b815250509050600073ffffffffffffffffffffffffffffffffffffffff16816000015173ffffffffffffffffffffffffffffffffffffffff161415610fcd576040517f08c379a0000000000000000000000000000000000000000000000000000000008152600401808060200182810382526021815260200180611c726021913960400191505060405180910390fd5b6110bf565b600360008563ffffffff1663ffffffff1681526020019081526020016000206040518060600160405290816000820160009054906101000a900473ffffffffffffffffffffffffffffffffffffffff1673ffffffffffffffffffffffffffffffffffffffff1673ffffffffffffffffffffffffffffffffffffffff168152602001600182015481526020016002820160009054906101000a9004600f0b600f0b600f0b815250509050600073ffffffffffffffffffffffffffffffffffffffff16816000015173ffffffffffffffffffffffffffffffffffffffff1614156110be5760009250506110fa565b5b60008160200151430390506000806110d6876109bc565b9150915060008167ffffffffffffffff168402856040015101905080965050505050505b50919050565b60015434101561115b576040517f08c379a0000000000000000000000000000000000000000000000000000000008152600401808060200182810382526047815260200180611b986047913960600191505060405180910390fd5b600073ffffffffffffffffffffffffffffffffffffffff16600460003373ffffffffffffffffffffffffffffffffffffffff1673ffffffffffffffffffffffffffffffffffffffff16815260200190815260200160002060000160009054906101000a900473ffffffffffffffffffffffffffffffffffffffff1673ffffffffffffffffffffffffffffffffffffffff1614611242576040517f08c379a000000000000000000000000000000000000000000000000000000000815260040180806020018281038252602c815260200180611c0e602c913960400191505060405180910390fd5b60405180606001604052803373ffffffffffffffffffffffffffffffffffffffff1681526020014381526020016000600f0b815250600460003373ffffffffffffffffffffffffffffffffffffffff1673ffffffffffffffffffffffffffffffffffffffff16815260200190815260200160002060008201518160000160006101000a81548173ffffffffffffffffffffffffffffffffffffffff021916908373ffffffffffffffffffffffffffffffffffffffff1602179055506020820151816001015560408201518160020160006101000a8154816fffffffffffffffffffffffffffffffff0219169083600f0b6fffffffffffffffffffffffffffffffff1602179055509050503373ffffffffffffffffffffffffffffffffffffffff167f897cf4333c71c4fe8c42014ee1c38e854558b338aa872de7b8dd9881570f668460405160405180910390a2565b60036020528060005260406000206000915090508060000160009054906101000a900473ffffffffffffffffffffffffffffffffffffffff16908060010154908060020160009054906101000a9004600f0b905083565b6000809054906101000a900473ffffffffffffffffffffffffffffffffffffffff1681565b60015481565b8233600260009054906101000a900463ffffffff1663ffffffff168263ffffffff1614611522578073ffffffffffffffffffffffffffffffffffffffff16600360008463ffffffff1663ffffffff16815260200190815260200160002060000160009054906101000a900473ffffffffffffffffffffffffffffffffffffffff1673ffffffffffffffffffffffffffffffffffffffff161461151d576040517f08c379a00000000000000000000000000000000000000000000000000000000081526004018080602001828103825260118152602001807f4e6f74206f776e696e6720706c616e657400000000000000000000000000000081525060200191505060405180910390fd5b611628565b600073ffffffffffffffffffffffffffffffffffffffff16600460008373ffffffffffffffffffffffffffffffffffffffff1673ffffffffffffffffffffffffffffffffffffffff16815260200190815260200160002060000160009054906101000a900473ffffffffffffffffffffffffffffffffffffffff1673ffffffffffffffffffffffffffffffffffffffff161415611627576040517f08c379a00000000000000000000000000000000000000000000000000000000081526004018080602001828103825260188152602001807f4e6f74206f776e696e67206f726967696e20706c616e6574000000000000000081525060200191505060405180910390fd5b5b83600073ffffffffffffffffffffffffffffffffffffffff16600360008363ffffffff1663ffffffff16815260200190815260200160002060000160009054906101000a900473ffffffffffffffffffffffffffffffffffffffff1673ffffffffffffffffffffffffffffffffffffffff161461170d576040517f08c379a00000000000000000000000000000000000000000000000000000000081526004018080602001828103825260158152602001807f506c616e6574206973206e6f7420756e6f776e6564000000000000000000000081525060200191505060405180910390fd5b600080611719876109bc565b915091508567ffffffffffffffff1661173189610e1e565b67ffffffffffffffff1610156117af576040517f08c379a000000000000000000000000000000000000000000000000000000000815260040180806020018281038252601e8152602001807f4e6f7420656e6f75676820756e697473206f6e2066726f6d506c616e6574000081525060200191505060405180910390fd5b8567ffffffffffffffff168267ffffffffffffffff16111561181c576040517f08c379a000000000000000000000000000000000000000000000000000000000815260040180806020018281038252602f815260200180611bdf602f913960400191505060405180910390fd5b60405180606001604052803373ffffffffffffffffffffffffffffffffffffffff1681526020014381526020016000600f0b815250600360008963ffffffff1663ffffffff16815260200190815260200160002060008201518160000160006101000a81548173ffffffffffffffffffffffffffffffffffffffff021916908373ffffffffffffffffffffffffffffffffffffffff1602179055506020820151816001015560408201518160020160006101000a8154816fffffffffffffffffffffffffffffffff0219169083600f0b6fffffffffffffffffffffffffffffffff1602179055509050503373ffffffffffffffffffffffffffffffffffffffff167f4f87672e29557a95006fde6860e8ed4bbada9fe9ff630f4696373472247964c388848903604051808363ffffffff1663ffffffff1681526020018267ffffffffffffffff1667ffffffffffffffff1681526020019250505060405180910390a261198a88888885611a01565b5050505050505050565b60046020528060005260406000206000915090508060000160009054906101000a900473ffffffffffffffffffffffffffffffffffffffff16908060010154908060020160009054906101000a9004600f0b905083565b600260009054906101000a900463ffffffff1681565b8167ffffffffffffffff16600360008663ffffffff1663ffffffff16815260200190815260200160002060020160008282829054906101000a9004600f0b0392506101000a8154816fffffffffffffffffffffffffffffffff0219169083600f0b6fffffffffffffffffffffffffffffffff160217905550600081830390508067ffffffffffffffff16600360008663ffffffff1663ffffffff16815260200190815260200160002060020160006101000a8154816fffffffffffffffffffffffffffffffff0219169083600f0b6fffffffffffffffffffffffffffffffff1602179055503373ffffffffffffffffffffffffffffffffffffffff168463ffffffff168663ffffffff167ff8c35a079321431cc80e6caedad9fd67e7b42bdd99ae34e9b4c74b9eb524a0c186604051808267ffffffffffffffff1667ffffffffffffffff16815260200191505060405180910390a45050505050565b6040518060600160405280600073ffffffffffffffffffffffffffffffffffffffff168152602001600081526020016000600f0b8152509056fe546865207472616e73616374696f6e20646f6573206e6f7420636f6e7461696e20656e6f756768742076616c756520746f20636f7665722074686520737461727420636f7374735468652073656e64656420756e697420616d6f756e7420697320736d616c6c6572207468616e2074686520636f7374546865206164647265737320616c726561647920626f7567687420616e20696e697469616c20706c616e657443616e2774206861766520756e697473206f6e20737461727420706c616e6574206966206e6f7420616e2061637469766520706c61796572506c6179657220646f6573206e6f74206f776e206f726967696e20706c616e6574a265627a7a723158204f087118798b5f8336dcf9856549a7b986d10f8cfbe7ed6d6a8522955f576b0a64736f6c63430005100032",
  "source": "pragma solidity >=0.4.22 <0.9.0;\n\ncontract SpaceY {\n    struct Planet {\n        address owner;\n        uint256 conquerBlockNumber;\n        int128 units;\n    }\n\n    address payable public owner;\n\n    uint256 public startCost;\n\n    uint32 public universeSize;\n\n    mapping(uint32 => Planet) public planets;\n    mapping(address => Planet) public startPlanets;\n\n    constructor(uint32 size, uint256 startFee) public {\n        universeSize = size;\n        startCost = startFee;\n        owner = msg.sender;\n    }\n\n    modifier ownsPlanet(uint32 planetId, address person) {\n        if (planetId != universeSize) {\n            require(planets[planetId].owner == person, \"Not owning planet\");\n        } else {\n            require(\n                startPlanets[person].owner != address(0x0),\n                \"Not owning origin planet\"\n            );\n        }\n        _;\n    }\n\n    modifier unownedPlanet(uint32 planetId) {\n        require(\n            planets[planetId].owner == address(0x0),\n            \"Planet is not unowned\"\n        );\n        _;\n    }\n\n    modifier planetExists(uint32 planetId) {\n        require(planetId <= universeSize);\n        _;\n    }\n\n    event InitialPlanetBought(address indexed player);\n    event PlanetConquered(\n        uint32 planetId,\n        address indexed player,\n        uint64 units\n    );\n    event UnitsMoved(\n        uint32 indexed fromPlanetId,\n        uint32 indexed toPlanetId,\n        address indexed player,\n        uint64 units\n    );\n\n    function getPlanetStats(uint32 planetId)\n        public\n        view\n        planetExists(planetId)\n        returns (uint64 unitsCost, uint64 unitsCreationRate)\n    {\n        if (planetId == universeSize) {\n            require(\n                startPlanets[msg.sender].owner != address(0x0),\n                \"Can't have units on start planet if not an active player\"\n            );\n            return (0, 1);\n        }\n        uint64 magnitute = (universeSize - planetId)**2;\n        uint64 productionRate = magnitute / 100;\n        if (productionRate <= 0) {\n            productionRate = 1;\n        }\n        return (magnitute, productionRate);\n    }\n\n    function getUnitsOnPlanet(uint32 planetId)\n        public\n        view\n        planetExists(planetId)\n        returns (uint64 units)\n    {\n        Planet memory planet;\n        if (planetId == universeSize) {\n            planet = startPlanets[msg.sender];\n            require(\n                planet.owner != address(0x0),\n                \"Player does not own origin planet\"\n            );\n        } else {\n            planet = planets[planetId];\n            if (planet.owner == address(0x0)) {\n                return 0;\n            }\n        }\n        uint256 blockDelta = block.number - planet.conquerBlockNumber;\n        (uint64 _, uint64 unitsCreationRate) = getPlanetStats(planetId);\n        uint64 amount =\n            uint64(planet.units + int128(blockDelta * unitsCreationRate));\n        return amount;\n    }\n\n    function getPlanet(uint32 planetId)\n        public\n        view\n        planetExists(planetId)\n        returns (\n            address owner,\n            uint256 conquerBlockNumber,\n            int128 units\n        )\n    {\n        Planet memory planet;\n        if (planetId == universeSize) {\n            if (startPlanets[msg.sender].owner != address(0x0)) {\n                planet = startPlanets[msg.sender];\n            } else {\n                return (address(0x0), 0, 0);\n            }\n        } else {\n            planet = planets[planetId];\n        }\n        return (planet.owner, planet.conquerBlockNumber, planet.units);\n    }\n\n    function buyInitialPlanet() external payable {\n        require(\n            msg.value >= startCost,\n            \"The transaction does not contain enought value to cover the start costs\"\n        );\n        require(\n            startPlanets[msg.sender].owner == address(0x0),\n            \"The address already bought an initial planet\"\n        );\n        startPlanets[msg.sender] = Planet(msg.sender, block.number, 0);\n        emit InitialPlanetBought(msg.sender);\n    }\n\n    function conquerPlanet(\n        uint32 fromPlanetId,\n        uint32 toPlanetId,\n        uint64 sendUnitAmount\n    ) external ownsPlanet(fromPlanetId, msg.sender) unownedPlanet(toPlanetId) {\n        (uint64 unitsCost, uint64 _) = getPlanetStats(toPlanetId);\n        require(\n            getUnitsOnPlanet(fromPlanetId) >= sendUnitAmount,\n            \"Not enough units on fromPlanet\"\n        );\n        require(\n            unitsCost <= sendUnitAmount,\n            \"The sended unit amount is smaller than the cost\"\n        );\n\n        planets[toPlanetId] = Planet(msg.sender, block.number, 0);\n\n        emit PlanetConquered(\n            toPlanetId,\n            msg.sender,\n            sendUnitAmount - unitsCost\n        );\n        forceMoveUnits(fromPlanetId, toPlanetId, sendUnitAmount, unitsCost);\n    }\n\n    function moveUnits(\n        uint32 fromPlanetId,\n        uint32 toPlanetId,\n        uint64 sendUnitAmount\n    )\n        external\n        ownsPlanet(toPlanetId, msg.sender)\n        ownsPlanet(fromPlanetId, msg.sender)\n    {\n        require(\n            getUnitsOnPlanet(fromPlanetId) >= sendUnitAmount,\n            \"Not enough units on fromPlanet\"\n        );\n        forceMoveUnits(fromPlanetId, toPlanetId, sendUnitAmount, 0);\n    }\n\n    function forceMoveUnits(\n        uint32 fromPlanetId,\n        uint32 toPlanetId,\n        uint64 sendUnitAmount,\n        uint64 unitsCost\n    ) private {\n        planets[fromPlanetId].units -= sendUnitAmount;\n        uint64 remainingUnits = sendUnitAmount - unitsCost;\n        planets[toPlanetId].units = remainingUnits;\n        emit UnitsMoved(fromPlanetId, toPlanetId, msg.sender, sendUnitAmount);\n    }\n}\n",
  "sourcePath": "/home/manuel/projects/spacey/contracts/SpaceY.sol",
  "compiler": {
    "name": "solc",
    "version": "0.5.16+commit.9c3226ce.Emscripten.clang"
  },
  "schemaVersion": "3.3.3",
  "updatedAt": "2021-02-08T14:43:17.640Z",
  "devdoc": {
    "methods": {}
  },
  "userdoc": {
    "methods": {}
  }
}