{
  "contractName": "SpaceY",
  "abi": [
    {
      "inputs": [
        {
          "internalType": "uint32",
          "name": "size",
          "type": "uint32"
        },
        {
          "internalType": "uint256",
          "name": "startFee",
          "type": "uint256"
        }
      ],
      "payable": false,
      "stateMutability": "nonpayable",
      "type": "constructor"
    },
    {
      "anonymous": false,
      "inputs": [
        {
          "indexed": false,
          "internalType": "uint32",
          "name": "planetId",
          "type": "uint32"
        },
        {
          "indexed": false,
          "internalType": "address",
          "name": "owner",
          "type": "address"
        },
        {
          "indexed": false,
          "internalType": "uint256",
          "name": "conquerBlockNumber",
          "type": "uint256"
        },
        {
          "indexed": false,
          "internalType": "int128",
          "name": "staticUnits",
          "type": "int128"
        },
        {
          "indexed": false,
          "internalType": "int128",
          "name": "dynamicUnits",
          "type": "int128"
        },
        {
          "indexed": false,
          "internalType": "uint64",
          "name": "totalUnits",
          "type": "uint64"
        }
      ],
      "name": "Debug_Planet",
      "type": "event"
    },
    {
      "anonymous": false,
      "inputs": [
        {
          "indexed": true,
          "internalType": "address",
          "name": "player",
          "type": "address"
        }
      ],
      "name": "InitialPlanetBought",
      "type": "event"
    },
    {
      "anonymous": false,
      "inputs": [
        {
          "indexed": false,
          "internalType": "uint32",
          "name": "planetId",
          "type": "uint32"
        },
        {
          "indexed": true,
          "internalType": "address",
          "name": "player",
          "type": "address"
        },
        {
          "indexed": false,
          "internalType": "uint64",
          "name": "units",
          "type": "uint64"
        }
      ],
      "name": "PlanetConquered",
      "type": "event"
    },
    {
      "anonymous": false,
      "inputs": [
        {
          "indexed": true,
          "internalType": "uint32",
          "name": "fromPlanetId",
          "type": "uint32"
        },
        {
          "indexed": true,
          "internalType": "uint32",
          "name": "toPlanetId",
          "type": "uint32"
        },
        {
          "indexed": true,
          "internalType": "address",
          "name": "player",
          "type": "address"
        },
        {
          "indexed": false,
          "internalType": "uint64",
          "name": "units",
          "type": "uint64"
        }
      ],
      "name": "UnitsMoved",
      "type": "event"
    },
    {
      "anonymous": false,
      "inputs": [
        {
          "indexed": false,
          "internalType": "uint32",
          "name": "fromPlanetId",
          "type": "uint32"
        },
        {
          "indexed": false,
          "internalType": "uint32",
          "name": "toPlanetId",
          "type": "uint32"
        },
        {
          "indexed": true,
          "internalType": "address",
          "name": "player",
          "type": "address"
        },
        {
          "indexed": false,
          "internalType": "uint64",
          "name": "units",
          "type": "uint64"
        }
      ],
      "name": "UnitsSendToConquer",
      "type": "event"
    },
    {
      "constant": true,
      "inputs": [
        {
          "internalType": "uint256",
          "name": "",
          "type": "uint256"
        }
      ],
      "name": "conqueredPlanets",
      "outputs": [
        {
          "internalType": "uint32",
          "name": "",
          "type": "uint32"
        }
      ],
      "payable": false,
      "stateMutability": "view",
      "type": "function"
    },
    {
      "constant": true,
      "inputs": [],
      "name": "owner",
      "outputs": [
        {
          "internalType": "address payable",
          "name": "",
          "type": "address"
        }
      ],
      "payable": false,
      "stateMutability": "view",
      "type": "function"
    },
    {
      "constant": true,
      "inputs": [
        {
          "internalType": "uint32",
          "name": "",
          "type": "uint32"
        }
      ],
      "name": "planets",
      "outputs": [
        {
          "internalType": "address",
          "name": "owner",
          "type": "address"
        },
        {
          "internalType": "uint256",
          "name": "conquerBlockNumber",
          "type": "uint256"
        },
        {
          "internalType": "int128",
          "name": "units",
          "type": "int128"
        }
      ],
      "payable": false,
      "stateMutability": "view",
      "type": "function"
    },
    {
      "constant": true,
      "inputs": [],
      "name": "startCost",
      "outputs": [
        {
          "internalType": "uint256",
          "name": "",
          "type": "uint256"
        }
      ],
      "payable": false,
      "stateMutability": "view",
      "type": "function"
    },
    {
      "constant": true,
      "inputs": [
        {
          "internalType": "address",
          "name": "",
          "type": "address"
        }
      ],
      "name": "startPlanets",
      "outputs": [
        {
          "internalType": "address",
          "name": "owner",
          "type": "address"
        },
        {
          "internalType": "uint256",
          "name": "conquerBlockNumber",
          "type": "uint256"
        },
        {
          "internalType": "int128",
          "name": "units",
          "type": "int128"
        }
      ],
      "payable": false,
      "stateMutability": "view",
      "type": "function"
    },
    {
      "constant": true,
      "inputs": [],
      "name": "universeSize",
      "outputs": [
        {
          "internalType": "uint32",
          "name": "",
          "type": "uint32"
        }
      ],
      "payable": false,
      "stateMutability": "view",
      "type": "function"
    },
    {
      "constant": true,
      "inputs": [],
      "name": "getConqueredPlanets",
      "outputs": [
        {
          "internalType": "uint32[]",
          "name": "",
          "type": "uint32[]"
        }
      ],
      "payable": false,
      "stateMutability": "view",
      "type": "function"
    },
    {
      "constant": true,
      "inputs": [
        {
          "internalType": "uint32",
          "name": "planetId",
          "type": "uint32"
        }
      ],
      "name": "getPlanetStats",
      "outputs": [
        {
          "internalType": "uint64",
          "name": "unitsCost",
          "type": "uint64"
        },
        {
          "internalType": "uint64",
          "name": "unitsCreationRate",
          "type": "uint64"
        }
      ],
      "payable": false,
      "stateMutability": "view",
      "type": "function"
    },
    {
      "constant": true,
      "inputs": [
        {
          "internalType": "uint32",
          "name": "planetId",
          "type": "uint32"
        }
      ],
      "name": "getUnitsOnPlanet",
      "outputs": [
        {
          "internalType": "uint64",
          "name": "units",
          "type": "uint64"
        }
      ],
      "payable": false,
      "stateMutability": "view",
      "type": "function"
    },
    {
      "constant": true,
      "inputs": [
        {
          "internalType": "uint32",
          "name": "planetId",
          "type": "uint32"
        }
      ],
      "name": "getPlanet",
      "outputs": [
        {
          "internalType": "address",
          "name": "owner",
          "type": "address"
        },
        {
          "internalType": "uint256",
          "name": "conquerBlockNumber",
          "type": "uint256"
        },
        {
          "internalType": "int128",
          "name": "units",
          "type": "int128"
        }
      ],
      "payable": false,
      "stateMutability": "view",
      "type": "function"
    },
    {
      "constant": false,
      "inputs": [],
      "name": "buyInitialPlanet",
      "outputs": [],
      "payable": true,
      "stateMutability": "payable",
      "type": "function"
    },
    {
      "constant": false,
      "inputs": [
        {
          "internalType": "uint32[]",
          "name": "fromPlanetIds",
          "type": "uint32[]"
        },
        {
          "internalType": "uint32",
          "name": "toPlanetId",
          "type": "uint32"
        },
        {
          "internalType": "uint64[]",
          "name": "sendUnitAmounts",
          "type": "uint64[]"
        }
      ],
      "name": "conquerPlanet",
      "outputs": [],
      "payable": false,
      "stateMutability": "nonpayable",
      "type": "function"
    },
    {
      "constant": false,
      "inputs": [
        {
          "internalType": "uint32",
          "name": "fromPlanetId",
          "type": "uint32"
        },
        {
          "internalType": "uint32",
          "name": "toPlanetId",
          "type": "uint32"
        },
        {
          "internalType": "uint64",
          "name": "sendUnitAmount",
          "type": "uint64"
        }
      ],
      "name": "moveUnits",
      "outputs": [],
      "payable": false,
      "stateMutability": "nonpayable",
      "type": "function"
    }
  ],
  "bytecode": "0x608060405234801561001057600080fd5b506040516114df3803806114df8339818101604052604081101561003357600080fd5b5080516020909101516002805463ffffffff90931663ffffffff1990931692909217909155600155600080546001600160a01b031916331790556114638061007c6000396000f3fe6080604052600436106100c25760003560e01c80636e2f1b951161007f578063b749aaf311610059578063b749aaf314610399578063d478eeaa146103c0578063d62b9b0814610425578063ddbf8a1114610458576100c2565b80636e2f1b95146103305780637eea9ab8146103385780638da5cb5b14610368576100c2565b80632ed9a1e0146100c757806348758b7514610113578063503f1a43146101695780635bb40674146101c85780636b63dfb0146102145780636c9c5433146102ed575b600080fd5b3480156100d357600080fd5b50610111600480360360608110156100ea57600080fd5b50803563ffffffff90811691602081013590911690604001356001600160401b031661046d565b005b34801561011f57600080fd5b506101436004803603602081101561013657600080fd5b503563ffffffff166106c8565b604080516001600160401b03938416815291909216602082015281519081900390910190f35b34801561017557600080fd5b506101996004803603602081101561018c57600080fd5b503563ffffffff16610794565b604080516001600160a01b0390941684526020840192909252600f90810b900b82820152519081900360600190f35b3480156101d457600080fd5b506101f8600480360360208110156101eb57600080fd5b503563ffffffff166108c1565b604080516001600160401b039092168252519081900360200190f35b34801561022057600080fd5b506101116004803603606081101561023757600080fd5b81019060208101813564010000000081111561025257600080fd5b82018360208201111561026457600080fd5b8035906020019184602083028401116401000000008311171561028657600080fd5b9193909263ffffffff833516926040810190602001356401000000008111156102ae57600080fd5b8201836020820111156102c057600080fd5b803590602001918460208302840111640100000000831117156102e257600080fd5b509092509050610a1e565b3480156102f957600080fd5b506103176004803603602081101561031057600080fd5b5035610e7a565b6040805163ffffffff9092168252519081900360200190f35b610111610eb1565b34801561034457600080fd5b506101996004803603602081101561035b57600080fd5b503563ffffffff16610fe7565b34801561037457600080fd5b5061037d611015565b604080516001600160a01b039092168252519081900360200190f35b3480156103a557600080fd5b506103ae611024565b60408051918252519081900360200190f35b3480156103cc57600080fd5b506103d561102a565b60408051602080825283518183015283519192839290830191858101910280838360005b838110156104115781810151838201526020016103f9565b505050509050019250505060405180910390f35b34801561043157600080fd5b506101996004803603602081101561044857600080fd5b50356001600160a01b03166110ae565b34801561046457600080fd5b506103176110dc565b6002548290339063ffffffff8084169116146104f15763ffffffff82166000908152600360205260409020546001600160a01b038281169116146104ec576040805162461bcd60e51b8152602060048201526011602482015270139bdd081bdddb9a5b99c81c1b185b995d607a1b604482015290519081900360640190fd5b610558565b6001600160a01b0381811660009081526004602052604090205416610558576040805162461bcd60e51b8152602060048201526018602482015277139bdd081bdddb9a5b99c81bdc9a59da5b881c1b185b995d60421b604482015290519081900360640190fd5b6002548590339063ffffffff8084169116146105dc5763ffffffff82166000908152600360205260409020546001600160a01b038281169116146105d7576040805162461bcd60e51b8152602060048201526011602482015270139bdd081bdddb9a5b99c81c1b185b995d607a1b604482015290519081900360640190fd5b610643565b6001600160a01b0381811660009081526004602052604090205416610643576040805162461bcd60e51b8152602060048201526018602482015277139bdd081bdddb9a5b99c81bdc9a59da5b881c1b185b995d60421b604482015290519081900360640190fd5b846001600160401b0316610656886108c1565b6001600160401b031610156106b2576040805162461bcd60e51b815260206004820152601e60248201527f4e6f7420656e6f75676820756e697473206f6e2066726f6d506c616e65740000604482015290519081900360640190fd5b6106bf87878760006110e8565b50505050505050565b6002546000908190839063ffffffff90811690821611156106e857600080fd5b60025463ffffffff8581169116141561075c57336000908152600460205260409020546001600160a01b031661074f5760405162461bcd60e51b815260040180806020018281038252603881526020018061139d6038913960400191505060405180910390fd5b600092506001915061078e565b6002805463ffffffff90811686900381169190910a16606481046001600160401b038116610788575060015b90935091505b50915091565b60025460009081908190849063ffffffff90811690821611156107b657600080fd5b6107be611283565b60025463ffffffff8781169116141561085257336000908152600460205260409020546001600160a01b03161561083d575033600090815260046020908152604091829020825160608101845281546001600160a01b0316815260018201549281019290925260020154600f90810b810b900b9181019190915261084d565b50600093508392508291506108b9565b6108a2565b5063ffffffff8516600090815260036020908152604091829020825160608101845281546001600160a01b0316815260018201549281019290925260020154600f90810b810b900b918101919091525b806000015181602001518260400151945094509450505b509193909250565b600254600090829063ffffffff90811690821611156108df57600080fd5b6108e7611283565b60025463ffffffff85811691161415610986575033600090815260046020908152604091829020825160608101845281546001600160a01b0316808252600183015493820193909352600290910154600f90810b810b900b928101929092526109815760405162461bcd60e51b81526004018080602001828103825260218152602001806113d56021913960400191505060405180910390fd5b6109e6565b5063ffffffff8316600090815260036020908152604091829020825160608101845281546001600160a01b0316808252600183015493820193909352600290910154600f90810b810b900b928101929092526109e6576000925050610a18565b602081015143036000806109f9876106c8565b6040909501516001600160401b03909516939093029390930194505050505b50919050565b63ffffffff831660009081526003602052604090205483906001600160a01b031615610a89576040805162461bcd60e51b8152602060048201526015602482015274141b185b995d081a5cc81b9bdd081d5b9bdddb9959605a1b604482015290519081900360640190fd5b848214610ac75760405162461bcd60e51b81526004018080602001828103825260358152602001806112a46035913960400191505060405180910390fd5b6000805b63ffffffff8116871115610cf8576000610b0289898463ffffffff16818110610af057fe5b9050602002013563ffffffff16610794565b50909150506001600160a01b0381163314610b4e5760405162461bcd60e51b815260040180806020018281038252602281526020018061134f6022913960400191505060405180910390fd5b85858363ffffffff16818110610b6057fe5b905060200201356001600160401b03166001600160401b0316610ba08a8a8563ffffffff16818110610b8e57fe5b9050602002013563ffffffff166108c1565b6001600160401b03161015610be65760405162461bcd60e51b81526004018080602001828103825260398152602001806113f66039913960400191505060405180910390fd5b610c2f89898463ffffffff16818110610bfb57fe5b9050602002013563ffffffff1687878563ffffffff16818110610c1a57fe5b905060200201356001600160401b03166111df565b85858363ffffffff16818110610c4157fe5b905060200201356001600160401b031683019250336001600160a01b03167fcc91208288643ca92081f29df87a0d89a75313fe20f7bb9f3b7177527b9e3d528a8a8563ffffffff16818110610c9257fe5b9050602002013563ffffffff168989898763ffffffff16818110610cb257fe5b6040805163ffffffff9687168152949095166020808601919091520291909101356001600160401b0316828401525090516060918190039190910190a250600101610acb565b506000610d04866106c8565b509050816001600160401b0316816001600160401b03161115610d585760405162461bcd60e51b815260040180806020018281038252602f815260200180611320602f913960400191505060405180910390fd5b60408051606081018252338082524360208084019182528587036001600160401b0316600f81810b86880190815263ffffffff8e81166000818152600387528a812099518a546001600160a01b0319166001600160a01b03909116178a5596516001808b01919091559251600290990180546001600160801b0319166001600160801b039a90950b99909916939093179097556005805491820181559094527f036b6384b5eca791c62761152d0c79bb0604c104a5fb6f4eb0703f3154bb3db06008850401805460079095166004026101000a96870219909416958102959095179092558451938452830152825190927f4f87672e29557a95006fde6860e8ed4bbada9fe9ff630f4696373472247964c3928290030190a25050505050505050565b60058181548110610e8757fe5b9060005260206000209060089182820401919006600402915054906101000a900463ffffffff1681565b600154341015610ef25760405162461bcd60e51b81526004018080602001828103825260478152602001806112d96047913960600191505060405180910390fd5b336000908152600460205260409020546001600160a01b031615610f475760405162461bcd60e51b815260040180806020018281038252602c815260200180611371602c913960400191505060405180910390fd5b604080516060810182523380825243602080840191825260008486018181528482526004909252858120945185546001600160a01b0319166001600160a01b039091161785559151600185015551600290930180546001600160801b0319166001600160801b03600f9590950b949094169390931790925591517f897cf4333c71c4fe8c42014ee1c38e854558b338aa872de7b8dd9881570f66849190a2565b6003602052600090815260409020805460018201546002909201546001600160a01b039091169190600f0b83565b6000546001600160a01b031681565b60015481565b606060058054806020026020016040519081016040528092919081815260200182805480156110a457602002820191906000526020600020906000905b82829054906101000a900463ffffffff1663ffffffff16815260200190600401906020826003010492830192600103820291508084116110675790505b5050505050905090565b6004602052600090815260409020805460018201546002909201546001600160a01b039091169190600f0b83565b60025463ffffffff1681565b60025463ffffffff84811691161415611148576040805162461bcd60e51b815260206004820152601d60248201527f54617267657420706c616e65742063616e2774206265206f726967696e000000604482015290519081900360640190fd5b61115284836111df565b63ffffffff80841660008181526003602090815260409182902060020180546001600160401b03878903818116600f0b6001600160801b03166001600160801b0319909316929092179092558351918816825292519294339493908a16927ff8c35a079321431cc80e6caedad9fd67e7b42bdd99ae34e9b4c74b9eb524a0c1928290030190a45050505050565b60025463ffffffff83811691161461123d5763ffffffff8216600090815260036020526040902060020180546001600160401b038316600f82810b91909103900b6001600160801b03166001600160801b031990911617905561127f565b33600090815260046020526040902060020180546001600160401b038316600f82810b91909103900b6001600160801b03166001600160801b03199091161790555b5050565b60408051606081018252600080825260208201819052918101919091529056fe4c656e677468206f6620706c616e6574496473206861766520746f206d61746368206c656e677468206f662073656e64556e697473546865207472616e73616374696f6e20646f6573206e6f7420636f6e7461696e20656e6f756768742076616c756520746f20636f7665722074686520737461727420636f7374735468652073656e64656420756e697420616d6f756e7420697320736d616c6c6572207468616e2074686520636f7374506c617965722068617320746f206f776e20616c6c2066726f6d20706c616e657473546865206164647265737320616c726561647920626f7567687420616e20696e697469616c20706c616e657443616e2774206861766520756e697473206f6e20737461727420706c616e6574206966206e6f7420616e2061637469766520706c61796572506c6179657220646f6573206e6f74206f776e206f726967696e20706c616e65744e6f7420656e6f75676820756e697473206f6e206f6e652066726f6d506c616e657420746f2066756c6c66696c6c2073656e64416d6f756e74a265627a7a723158203c5cdf3041306bf37fd5af083b9f30c9523e25a84fd0ed42940b828a2875e46d64736f6c63430005100032",
  "source": "pragma solidity >=0.4.22 <0.9.0;\n\ncontract SpaceY {\n    struct Planet {\n        address owner;\n        uint256 conquerBlockNumber;\n        int128 units;\n    }\n\n    address payable public owner;\n\n    uint256 public startCost;\n\n    uint32 public universeSize;\n\n    mapping(uint32 => Planet) public planets;\n    mapping(address => Planet) public startPlanets;\n    uint32[] public conqueredPlanets;\n\n    constructor(uint32 size, uint256 startFee) public {\n        universeSize = size;\n        startCost = startFee;\n        owner = msg.sender;\n    }\n\n    modifier ownsPlanet(uint32 planetId, address person) {\n        if (planetId != universeSize) {\n            require(planets[planetId].owner == person, \"Not owning planet\");\n        } else {\n            require(\n                startPlanets[person].owner != address(0x0),\n                \"Not owning origin planet\"\n            );\n        }\n        _;\n    }\n\n    modifier unownedPlanet(uint32 planetId) {\n        require(\n            planets[planetId].owner == address(0x0),\n            \"Planet is not unowned\"\n        );\n        _;\n    }\n\n    modifier planetExists(uint32 planetId) {\n        require(planetId <= universeSize);\n        _;\n    }\n\n    event InitialPlanetBought(address indexed player);\n    event UnitsSendToConquer(\n        uint32 fromPlanetId,\n        uint32 toPlanetId,\n        address indexed player,\n        uint64 units\n    );\n    event PlanetConquered(\n        uint32 planetId,\n        address indexed player,\n        uint64 units\n    );\n    event UnitsMoved(\n        uint32 indexed fromPlanetId,\n        uint32 indexed toPlanetId,\n        address indexed player,\n        uint64 units\n    );\n\n    event Debug_Planet(\n        uint32 planetId,\n        address owner,\n        uint256 conquerBlockNumber,\n        int128 staticUnits,\n        int128 dynamicUnits,\n        uint64 totalUnits\n    );\n\n    function getConqueredPlanets() external view returns (uint32[] memory) {\n        return conqueredPlanets;\n    }\n\n    function debug_emitPlanet(uint32 planetId) private {\n        Planet memory planet;\n        if (planetId == universeSize) {\n            planet = startPlanets[msg.sender];\n        } else {\n            planet = planets[planetId];\n        }\n        uint256 blockDelta = block.number - planet.conquerBlockNumber;\n        (uint64 _, uint64 unitsCreationRate) = getPlanetStats(planetId);\n        int128 dynamicUnits = int128(blockDelta * unitsCreationRate);\n        uint64 totalUnits = uint64(planet.units + dynamicUnits);\n        emit Debug_Planet(\n            planetId,\n            planet.owner,\n            planet.conquerBlockNumber,\n            planet.units,\n            dynamicUnits,\n            totalUnits\n        );\n    }\n\n    function getPlanetStats(uint32 planetId)\n        public\n        view\n        planetExists(planetId)\n        returns (uint64 unitsCost, uint64 unitsCreationRate)\n    {\n        if (planetId == universeSize) {\n            require(\n                startPlanets[msg.sender].owner != address(0x0),\n                \"Can't have units on start planet if not an active player\"\n            );\n            return (0, 1);\n        }\n        uint64 magnitute = (universeSize - planetId)**2;\n        uint64 productionRate = magnitute / 100;\n        if (productionRate <= 0) {\n            productionRate = 1;\n        }\n        return (magnitute, productionRate);\n    }\n\n    function getUnitsOnPlanet(uint32 planetId)\n        public\n        view\n        planetExists(planetId)\n        returns (uint64 units)\n    {\n        Planet memory planet;\n        if (planetId == universeSize) {\n            planet = startPlanets[msg.sender];\n            require(\n                planet.owner != address(0x0),\n                \"Player does not own origin planet\"\n            );\n        } else {\n            planet = planets[planetId];\n            if (planet.owner == address(0x0)) {\n                return 0;\n            }\n        }\n        uint256 blockDelta = block.number - planet.conquerBlockNumber;\n        (uint64 _, uint64 unitsCreationRate) = getPlanetStats(planetId);\n        uint64 amount =\n            uint64(planet.units + int128(blockDelta * unitsCreationRate));\n        return amount;\n    }\n\n    function getPlanet(uint32 planetId)\n        public\n        view\n        planetExists(planetId)\n        returns (\n            address owner,\n            uint256 conquerBlockNumber,\n            int128 units\n        )\n    {\n        Planet memory planet;\n        if (planetId == universeSize) {\n            if (startPlanets[msg.sender].owner != address(0x0)) {\n                planet = startPlanets[msg.sender];\n            } else {\n                return (address(0x0), 0, 0);\n            }\n        } else {\n            planet = planets[planetId];\n        }\n        return (planet.owner, planet.conquerBlockNumber, planet.units);\n    }\n\n    function buyInitialPlanet() external payable {\n        require(\n            msg.value >= startCost,\n            \"The transaction does not contain enought value to cover the start costs\"\n        );\n        require(\n            startPlanets[msg.sender].owner == address(0x0),\n            \"The address already bought an initial planet\"\n        );\n        startPlanets[msg.sender] = Planet(msg.sender, block.number, 0);\n        emit InitialPlanetBought(msg.sender);\n    }\n\n    function conquerPlanet(\n        uint32[] calldata fromPlanetIds,\n        uint32 toPlanetId,\n        uint64[] calldata sendUnitAmounts\n    ) external unownedPlanet(toPlanetId) {\n        require(\n            fromPlanetIds.length == sendUnitAmounts.length,\n            \"Length of planetIds have to match length of sendUnits\"\n        );\n        uint64 totalSendAmount = 0;\n        for (uint32 i = 0; i < fromPlanetIds.length; i++) {\n            (address planetOwner, , ) = getPlanet(fromPlanetIds[i]);\n            require(\n                planetOwner == msg.sender,\n                \"Player has to own all from planets\"\n            );\n            require(\n                getUnitsOnPlanet(fromPlanetIds[i]) >= sendUnitAmounts[i],\n                \"Not enough units on one fromPlanet to fullfill sendAmount\"\n            );\n            removeUnitsFrom(fromPlanetIds[i], sendUnitAmounts[i]);\n            totalSendAmount += sendUnitAmounts[i];\n            emit UnitsSendToConquer(\n                fromPlanetIds[i],\n                toPlanetId,\n                msg.sender,\n                sendUnitAmounts[i]\n            );\n        }\n        (uint64 unitsCost, ) = getPlanetStats(toPlanetId);\n        require(\n            unitsCost <= totalSendAmount,\n            \"The sended unit amount is smaller than the cost\"\n        );\n\n        planets[toPlanetId] = Planet(\n            msg.sender,\n            block.number,\n            totalSendAmount - unitsCost\n        );\n        conqueredPlanets.push(toPlanetId);\n\n        emit PlanetConquered(\n            toPlanetId,\n            msg.sender,\n            totalSendAmount - unitsCost\n        );\n    }\n\n    function moveUnits(\n        uint32 fromPlanetId,\n        uint32 toPlanetId,\n        uint64 sendUnitAmount\n    )\n        public\n        ownsPlanet(toPlanetId, msg.sender)\n        ownsPlanet(fromPlanetId, msg.sender)\n    {\n        require(\n            getUnitsOnPlanet(fromPlanetId) >= sendUnitAmount,\n            \"Not enough units on fromPlanet\"\n        );\n        forceMoveUnits(fromPlanetId, toPlanetId, sendUnitAmount, 0);\n    }\n\n    function forceMoveUnits(\n        uint32 fromPlanetId,\n        uint32 toPlanetId,\n        uint64 sendUnitAmount,\n        uint64 unitsCost\n    ) private {\n        require(toPlanetId != universeSize, \"Target planet can't be origin\");\n        removeUnitsFrom(fromPlanetId, sendUnitAmount);\n        uint64 remainingUnits = sendUnitAmount - unitsCost;\n        planets[toPlanetId].units = remainingUnits;\n        emit UnitsMoved(fromPlanetId, toPlanetId, msg.sender, sendUnitAmount);\n    }\n\n    function removeUnitsFrom(uint32 planetId, uint64 unitAmount) private {\n        if (planetId != universeSize) {\n            planets[planetId].units -= unitAmount;\n        } else {\n            startPlanets[msg.sender].units -= unitAmount;\n        }\n    }\n}\n",
  "sourcePath": "/home/manuel/projects/spacey/contracts/SpaceY.sol",
  "compiler": {
    "name": "solc",
    "version": "0.5.16+commit.9c3226ce.Emscripten.clang"
  },
  "schemaVersion": "3.3.3",
  "updatedAt": "2021-02-11T14:21:47.480Z",
  "devdoc": {
    "methods": {}
  },
  "userdoc": {
    "methods": {}
  }
}